:100000000C947F090C94B0090C94B0090C94B009BD
:100010000C94B0090C94B0090C94B0090C94B0097C
:100020000C94B0090C94B0090C94B0090C94B0096C
:100030000C94B0090C94B0090C94B0090C94B0095C
:100040000C94B0090C9491180C94B0090C94B0095C
:100050000C94B0090C94B0090C94B0090C94BD1721
:100060000C94B0090C94B0090C94B0090C94B0092C
:100070000C94B0090C94B0090C94B0090C94B0091C
:100080000C9463180C94B0090C94B0090C94B0094A
:100090000C94B0090C94B0090C94B0090C94991606
:1000A0000C94B0090C94B0090C9435180C94B00958
:1000B0000C94B0090C94B0090C94B0090C94071876
:1000C0000C94B0090C94B0090C94B0090C94B009CC
:1000D0000C94B0090C94B0090C94B0090C94B009BC
:1000E0000C94B0090C942B0A0C94760A0C94510BC6
:1000F0000C942F0B0C94670D0C941E130C94770A20
:100100000C941A0B0C94A00A0C94BC090C94560E77
:100110000C94750A0C9448160C942C0B0C94CD0A74
:100120000C94550B0C94DD110C94D00E0C94430BD5
:100130000C945A0B0C94D0130C94280B0C94470B72
:100140000C94860A0C94740A0C94BF180C94350B0A
:100150000C9449160C943F0B0C94240B0C94390B03
:100160000C945F0B0C94990A0C944D0B0C945B0F40
:100170000C94200B0C94F8130C945B0B0C94C00E95
:100180000C94B209000020002300260029002C0056
:100190002F003200000100000301060109010000E8
:1001A0002100240027002A002D0030003300010127
:1001B0000000040107010A010000220025002800B8
:1001C0002B002E003100340002010000050108015F
:1001D0000B010505050507050808080802020202CB
:1001E0000A0A0808040404040101010101010101D3
:1001F0000303030303030303040707070C0C0C0C9E
:100200000C0C0C0C02020202060606060606060686
:100210000B0B0B0B0B0B0B0B010210202008081013
:100220002040102040800201020108040201010266
:10023000040810204080804020100804020180043F
:10024000020180402010080402010804020101029A
:1002500004081020408001020408102040800000A3
:100260000A0B02090C0D0E08070304010000000030
:10027000000000000000000000000000000000007E
:10028000000000000000000000001211100000003B
:10029000000000000000000000000000000000005E
:1002A00000000000E000040304050405050C16002E
:1002B000FC0EFC10FE02480480103B20050010726A
:1002C0002108E21872786044220966547310E11321
:1002D000012316AA9072512422727060A24844E44D
:1002E000E0C0449188080024222AD1711214B33945
:1002F000889890281121119A903ABA9218122111D7
:10030000A99098388831131402251EEA1072398892
:10031000382011219128A910A139BA219128A910BA
:100320002111A1A1101201261BEA1072293A99117C
:1003300091191199B122A332213988A118213910BC
:10034000211127076258733828280E26D571921973
:10035000D946483FDA9100290E26D57110DA91FE70
:1003600066641B21002A13AA9072121412113928F4
:1003700031323928512428042B0EAA507212D4E8A5
:10038000E0C0485023002C0E95947111A1209911C2
:10039000995813032D0726D47238282E0A4436F2B2
:1003A00090388890002F194B91F15428292829283A
:1003B00029282928292829282928292829093019DC
:1003C000EA1072B1398818AA2AB23999A018B9313D
:1003D000AA2A9A38883101310DEA107212946AA85B
:1003E0003F3A38303212EA1072B13988182A139421
:1003F0001BDB670707063317EA1072B13988182A22
:10040000139493222B1C242B9A388831013418EA38
:100410001072931BA32A9A9019119911111239384D
:1004200030131433323516EA1072F82050F020E4FD
:100430004070502159D1C4418C09003617EA10721E
:10044000B13999133C083990902AE3AC68E220C690
:100450000400370EEA10727860A8DDD876823A027E
:10046000381AEA1072B13988182A23931092B139D8
:1004700088182A232B9A388831013917EA1072B16B
:100480003988182AE3AC4AE240E420506EE4C604FE
:10049000003A0EA436F29038881095388890003BC8
:1004A00012F5947111A1209116A120991199581358
:1004B000033C0CE81472931ADAABB13D133D0B6A9E
:1004C000907278600F7570603E0CE8147210DB5704
:1004D000437B25063F14EA1072B13988182A139419
:1004E0001BDB4E1E5A500800401BEA1072B13988BF
:1004F000182AA3393908112111213988A1101C3C6F
:100500001039084117EA10729223A31211129111A7
:10051000121192103B7830C69900421AEA107238D4
:10052000083990902A6325711072202155C6EAA0DF
:10053000E22004004313EA1072B13988182A23D448
:10054000674513073126004412EA107238083990C3
:10055000902AE35F1D541C84004512EA1072F820B3
:1005600050C383908310410D0F0E0C4610EA107299
:10057000F82050C383908310413D044715EA107260
:10058000B13988182A2354E48C59D1C4418C09000C
:10059000480DEA107210E3B38307637C26490DEA25
:1005A0001072786024A87F7470604A0FEA1072D4C9
:1005B0000FC998154D1CC498004B1CEA1072902A64
:1005C0009A901911999118AA22AB9218129991191F
:1005D000119A902A134C0CEA107210D4FFF0E0C06C
:1005E000004D15EA1072102B3A39389060224222E1
:1005F000422242C667024E14EA107210AB32BAA110
:10060000182199A039B22AE399004F12EA1072B169
:100610003988182AE3CF8A260E624C005014EA105B
:100620007238083990902A637550711022A887009B
:1006300051140AD171B13988182AE34F442A2C0E7B
:10064000620E07055216EA107238083990902A6334
:1006500025711072202155C633015316EA1072B16C
:100660003988182A231C3C3A1C242B9A38883101DB
:10067000540CEA1072786024A8FF1100550EEA109D
:100680007210E37F5634711063025616EA1072102E
:10069000E333092111211911211129323A41210095
:1006A0005715EA107210E32722242224221414077B
:1006B00007224765025816EA107210635634313229
:1006C0006345466533323154C64C005911EA107205
:1006D00010E359D1C4C88C159DA08E005A0FEA10A2
:1006E0007278602837B6DF091E1C185B0C24D9719C
:1006F0003818D1FF9383005C194B937190149514B3
:1007000095149514951495149514951495149514A1
:100710005D0C24D5713808D1FF9383015E0F6A10F8
:100720007392A3B21999189A088B005F082C9071E4
:10073000F8600060084494731059226112AA107284
:10074000398838A82263557452612142226214EA22
:10075000107210D4F020E44042AA8C5707150721EC
:10076000006311AA1072B13988182A2354387820EE
:1007700072106413EA1072D4C941C4411519675547
:1007800012072207016512AA1072B13988182A3B94
:1007900078303878207210660FE81472A229991206
:1007A000323112D38F006717EA9071398838A82246
:1007B000E3AC4AE240E420506EE4C604006810EA6C
:1007C000107210D4F020E44042AA8C9F09690DE613
:1007D000147211122721D22707056A0E2691715231
:1007E0004E42A47F731041026B18EA107210D4D1EC
:1007F00084CC88C88CC490D1CDC888D0845499004A
:100800006C0BE614722021D27F72506D19AA1072FF
:10081000380839901091281121112111211121112D
:10082000211121516E10AA1072102191B02839AAFD
:1008300022E399006F12AA1072B13988182AE3AC2A
:1008400068E220C604007014EA907138083990906C
:100850002AE3D541C54188A086007113EA90713919
:100860008838A822E3AC4AE240E42050077210AA7C
:100870001072102191B02839AA13D421007312AA42
:10088000107239883820943CBA143CA0380801749E
:100890000FE8147211D3C8C4484C67634504750F40
:1008A000AA107210E3ABA2930A0B1112017614AADC
:1008B0001072106326212422242332232245462746
:1008C00004771AAA1072101121112111211121117E
:1008D00021112111215171102322027813AA1072C3
:1008E000102B9A1899B122A3B21999182A137913C7
:1008F000EA907110E36755120722078172233726A9
:10090000007A0CAA10727860B6CF0E0E0C7B1366BC
:10091000957192199911D29B9199A1217DB44800AA
:100920007C0822D971F883007D13669571105AA452
:100930008FD68CCC08E9CDC88C10007E0D4AD072C1
:1009400011922821A91012017F0500107280050064
:1009500010728105001072820A74B071D185490845
:100960000083146A9171A32A9A13D4999199A0FED5
:100970006EA88A0C00840D78B071D15F4C588CC47D
:10098000840085092A107210112151860DA69472D7
:100990001112392811D213008710A694721112393E
:1009A0002811123928111201880A46947391A1382E
:1009B000081189250C117239983830119910911845
:1009C00011A911A1B2232491399820113111991044
:1009D000D19B83281111008A1A2A1172516445276C
:1009E0006673103154463878743848563471106341
:1009F000028B0FA4F0719198909810111911191190
:100A00008C1FEA1072398838A810121112111211B5
:100A10001221112151242224223421752072108D9B
:100A2000050010728E050010728F0500107290057F
:100A3000001072910B74187309B110D10400920A5E
:100A400074F872D185490800930E78147389099956
:100A5000B09810D14F00940D78F472D15F4C588C3F
:100A6000C484009514AA50F2213A08398838F84114
:100A7000C541C841100D00960726D4723828970842
:100A80002CD072F86000980D4A907311922821A919
:100A9000101201990F6C1073380839381131113167
:100AA000D1079A170A1172516445270F7B107140C4
:100AB0002879742978407110029B0FA4F0711019E5
:100AC00011195131213121029C18AA107251731051
:100AD00021224222427210721022242275202242C8
:100AE0009D050010729E050010729F152A1172510B
:100AF00024220F27C6B3A28991192B3A411D01A0C8
:100B000005001072A109E21C72203A3830A21DEAD9
:100B1000D0711214B3398898902811211112111232
:100B2000119A903A103908121402A3180A1172A1EE
:100B3000B2191911121114343212D419D541C54108
:100B40000800A418AA10F2088B189A3888311211DC
:100B50001211B23988189A088B00A517EA10721082
:100B60002B9A18993139383012143A383012D40887
:100B700000A60A22D9717820747020A7284AD1F1E2
:100B8000A9390811B292181299A1181299911999BC
:100B9000199919999119119AA019119A903212392B
:100BA00088A901A808269473102111A91AEA10F245
:100BB000A0BA099A94A110292123932811A1109475
:100BC000081A39A202AA12C8D472B138982122AAEE
:100BD0009138B187383810AB19AAF07111929899F1
:100BE0001092989910121112991911129919111243
:100BF000AC096A50727860A803AD072AD072786099
:100C0000AE18CA50F2A0BA099A94A091A821112155
:100C100011B939A9B0102101AF072694733828B053
:100C20000F881473A1B11829222A99B02101B1109B
:100C3000CA107212D4E8E0C04850A3830303B20C78
:100C40007576F39888098AC9A600B30E7576F3986D
:100C500088090A9192899800B40944987391B01058
:100C600001B51CEA90711012111211121112111219
:100C70001112111291A138381021D41000B6230A94
:100C800011F2B9389028A91021112111A910912829
:100C900091389039121112111211121112111211F0
:100CA000B70A4498F29038889000B80B6494713871
:100CB0000891300901B90A7576730919CA4901BA50
:100CC00012C8D472A1B11829222A99B0A187393843
:100CD00010BB1AAAF0711012991911129919111258
:100CE0001192989910929899101201BC1B2C11F234
:100CF000899CCD2E262CA426348FA2828452C40433
:100D000085A42A0D9D00BD1B2C11F2899CCD2E2699
:100D10002CA426344FA64262D285C485C48586564B
:100D200000BE1F2C1172198C898D148E8A88098A35
:100D3000190ACDA3A820A114314121A94A432700B3
:100D4000BF14EA1072129487961BDB4E50AC68E217
:100D500020C60400C0192A1172115CA88E8C4A4466
:100D600048444648444842ECE0C1186702C11B2A87
:100D70001172931B9B139423A31211129111121140
:100D800092103B7830C69900C21C2A117292A3328D
:100D900012119323A31211129111121192103B7888
:100DA00030C69900C31E2A117211922821A910126F
:100DB0009323A31211129111121192103B7830C695
:100DC0009900C41B2A11725124220F2B4746252259
:100DD0002422232422242176F0608C3301C51C2A8E
:100DE000117292A31211129122632522242223242C
:100DF00022242176F0608C3301C61FEA10723988F4
:100E000038A8101211121112113A0839085124226F
:100E10002422242224721062C7172A9171B13988C2
:100E2000182A23D46745130731667263836100C8AB
:100E3000162A1172115C2874F02050C3839083101D
:100E4000410D0F0E0CC9172A1172931B9B133A7890
:100E500010A8E141C84188A086070706CA182A11D0
:100E60007292A3321211397810A8E141C84188A0CA
:100E700086070706CB172A11725124220F77F0201C
:100E800050C383908310410D0F0E0CCC112A1172A8
:100E9000115C2874706024A87F747060CD122A11D0
:100EA00072931B9B133A383012D43F3A3830CE132A
:100EB0002A117292A332121139383012D43F3A38C3
:100EC00030CF122A11725124220F77706024A87F2C
:100ED000747060D01DEA107231BA9119111211129A
:100EE000113A083908512422242224223372630241
:100EF000D11B2A117211922821A9901911AB32BA73
:100F0000A1182199A039B22AE39900D2152A1172A9
:100F1000115C286673103154C69F154D1CC498008F
:100F2000D3162A1172931B9B13B33988182AE3CF67
:100F30008A260E624C00D4172A117292A332121123
:100F4000B73988182AE367451307312600D5192ACF
:100F5000117211922821A99019B23988182AE3CF69
:100F60008A260E624C00D6162A11725124220F696D
:100F700073103154C69F154D1CC49800D716AA5043
:100F8000F2088B189A1899B122A3B21999189A08E5
:100F90008B00D819EA1072B1398818AA2AB2399987
:100FA000A018B931AA2A9A38883101D9122A1172A7
:100FB000115C2824C6FFAC68E220C60400DA122ABD
:100FC0001172931B9B1312E37F563471106302DB83
:100FD000132A117292A332121116E33F2B9A38880A
:100FE0003101DC132A11725124220F27C6FFAC688D
:100FF000E220C60400DD152A1172931B9B1312E335
:1010000059D1C4C88C159DA08E00DE16EA1072104E
:10101000143C083990902A637550711022A8210061
:10102000DF1E2AD171A2B2199918AAA22A9A101207
:101030001112119A902A6355522142222808E01772
:101040000A1172125C280F7910715045C6AAE8A4E3
:10105000C242844400E1170A1172931B9B93873D9F
:101060008838A8226355745261214222E2180A117D
:101070007292A3321291873C8838A8226355745229
:1010800061214222E31A0A117211922821A9909932
:10109000873C8838A8226355745261214222E417A4
:1010A000EA10725124220F7910715045C6AAE8A4A3
:1010B000C242844400E51A0A117292A312111291DD
:1010C000A2133B8838A8226355745261214222E65C
:1010D00018AA1072B1398898902811213908390856
:1010E000119A903A103908E716EA9071B1398818C8
:1010F0002A235438782072102437361806E8170A45
:101100001172115C280F6B7310315476F06070F01F
:1011100040E42000E9170A1172931B9B9387B539AD
:1011200088182A3B78303878207210EA180A117231
:1011300092A332129187B43988182A3B78303878D4
:10114000207210EB17EA10725124220F69731031CC
:101150005476F06070F040E42000EC0E061572103A
:101160005A244E42A44F0E0AED0F06157292199999
:10117000112721D2270705EE1006157291A1380814
:10118000112621D2270705EF0EE614721021112631
:1011900021D2270705F01A1A1172496545466515CF
:1011A00032387310715054C659D1C4418C0900F1C2
:1011B000180A117211922821A9909987132191B0D0
:1011C0002839AA22E39900F2160A1172115C280F3D
:1011D0006B73103154C659D1C4418C0900F3170AFE
:1011E0001172931B9B9387B53988182AE3AC68E288
:1011F00020C60400F4180A117292A332129187B427
:101200003988182AE3AC68E220C60400F51A0A11EE
:101210007211922821A9909987B43988182AE3ACD1
:1012200068E220C60400F616EA10725124220F6903
:1012300073103154C659D1C4418C0900F70FAA501C
:10124000721294873C38B087141402F815AA1072F1
:10125000B1398898B13999A018B9B1993888310154
:10126000F9130A1172115C280F29C6574527151664
:10127000222402FA140A1172931B9B938714E3AB86
:10128000A2930A0B111201FB150A117292A33212DA
:10129000918713E3ABA2930A0B111201FC13EA101E
:1012A000725124220F27C65745271516222402FD06
:1012B000184A9171931B9B938714E3675512072279
:1012C00007817223372600FE162A917110D4F02070
:1012D000E44042AA8C5707150721821A02FF172AF9
:1012E00091715124220F27C6CFAA240E440E02E585
:1012F000466E4C0000000004FFFF0000BF181124E0
:101300001FBECFEFD1E2DEBFCDBF00E00CBF12E0C9
:10131000A0E0B2E0ECE5FAE300E00BBF02C007900A
:101320000D92AA38B107D9F725E0AAE8B2E001C0CA
:101330001D92AE3AB207E1F719E0CFE7D9E000E03D
:1013400006C021970109802FFE010E94161DCE378D
:10135000D10780E00807A9F70E949D190C942C1D65
:101360000C940000662329F06A3019F0862F90E073
:1013700008958FEF9FEF0895AF92BF92CF92DF92C3
:10138000EF92FF920F93CF93DF93EC01DA01790193
:10139000942F9770E1E0F0E09F01092E01C0220F29
:1013A0000A94EAF7522F6E018AE8C80ED11CF601A2
:1013B000808140E0823018F4422F813049F15D0194
:1013C000F8EFAF22E8ADF9AD28813981D901509607
:1013D0008C918A9D90018B9D300D1124620F731F9B
:1013E000DF01A60FB71F01111AC0EA0EFB1E8C9178
:1013F000842B85278D93AE15BF05C9F7DF91CF915B
:101400000F91FF90EF90DF90CF90BF90AF90089535
:1014100050E0D5CF440F550FE114F10479F33C911E
:10142000342B35273C939F5F9770E1E0EE1AF1086B
:101430009111F0CF2CAD3DADA20FB31FF60180810D
:10144000823028F4813009F051E041E0E5CF51E0ED
:10145000E3CF80E0089590E080E00895CF93DF939C
:10146000C5E1D5E08FAFEAADFBAD0190F081E02D95
:1014700089E195E01995EAADFBAD0280F381E02D9D
:1014800089E195E0DF91CF9119949B01DC011896D9
:10149000ED91FC9141E067E1199420912C03260F16
:1014A0003327331F21323105ECF420915203FC0124
:1014B00090E080E0243069F082E00895A0912C0350
:1014C0002191AC01465F5C4FA40FB52FB11D2C9349
:1014D0000196861798F380912C03680F60932C0374
:1014E00080E0089581E00895089508950895E091B9
:1014F000010380910003E81730F4F0E0E052FD4F63
:10150000808190E008958FEF9FEF089590910103FF
:10151000809100032FEF3FEF981748F4E92FF0E098
:10152000E052FD4F208130E09F5F90930103C9019D
:1015300008958091000390910103891B990B0895F0
:10154000CF92DF92EF92FF920F931F93CF93DF938F
:101550007C01CB018A012091DF02222389F0EB017B
:101560006B01C40ED51ECC15DD0569F06991D7015C
:10157000ED91FC910190F081E02DC7011995F3CF19
:10158000642F0E944D0AC801DF91CF911F910F91E6
:10159000FF90EF90DF90CF900895CF93DF931F924D
:1015A000CDB7DEB769832091DF022223F9F02091C5
:1015B0000203203258F021E030E0FC013383228323
:1015C00090E080E00F90DF91CF9108958091030328
:1015D000E82FF0E0E154FD4F998190838F5F809375
:1015E00003038093020381E090E0ECCF61E0CE0141
:1015F00001960E944D0AF7CF8150823108F05AC0FF
:10160000E82FF0E08827E85FF44F8F4F0C94161D09
:10161000280B2C0B1A0B200B240B5A0B2F0B350B02
:10162000390B3F0B430B470B4D0B510B5A0B550B13
:101630005B0B5F0B809180008F7780938000089513
:10164000809180008F7DF9CF80918000877FF5CFDA
:1016500084B58F7784BD089584B58F7DFBCF80914D
:10166000B0008F778093B00008958091B0008F7D97
:10167000F9CF809190008F778093900008958091AA
:1016800090008F7DF9CF80919000877FF5CF80917A
:10169000A0008F778093A00008958091A0008F7D97
:1016A000F9CF8091A000877FF5CF809120018F77BF
:1016B000809320010895809120018F7DF9CF809142
:1016C0002001877FF5CF1F93CF93DF93282F30E042
:1016D000F901E25AFD4F8491F901E85EFD4FD49182
:1016E000F901EE52FE4FC491CC23A9F0162F8111BF
:1016F0000E94FC0AEC2FF0E0EE0FFF1FE854FE4FB3
:10170000A591B4918FB7F894EC91111108C0D095C0
:10171000DE23DC938FBFDF91CF911F910895DE2BE5
:10172000F8CF1092520381E0809354031092530338
:1017300061E084E10E94630B61E085E10E94630B3C
:10174000E9EBF0E080818E7F808380818D7F8083D4
:1017500088E48093B80085E48093BC000895CF931B
:10176000DF9391E0909309038823B9F0C091B8000A
:10177000D091BA008091BC008A7B8093BC0060E06D
:1017800084E10E94630B60E085E10E94630B0E948C
:10179000910BD093BA00C093B800DF91CF91089518
:1017A000CF93DF9390E0FC01E85EFD4F24918E52D1
:1017B0009E4FFC0184918823D1F090E0880F991FFF
:1017C000FC01E256FE4FA591B491FC01E854FE4F96
:1017D000C591D491623071F49FB7F8943C91822FF7
:1017E000809583238C93E8812E2B28839FBFDF91E4
:1017F000CF9108958FB7F894EC912E2B2C938FBF37
:10180000F6CF3FB7F8948091BB029091BC02A091B3
:10181000BD02B091BE0226B5A89B05C02F3F19F0AE
:101820000196A11DB11D3FBFBA2FA92F982F882760
:10183000BC01CD01620F711D811D911D42E0660F3B
:10184000771F881F991F4A95D1F70895AF92BF92CD
:10185000CF92DF92EF92FF920F931F93CF93DF937C
:101860006B017A01EC01C055DD4F28813CE0389FC7
:101870008001399F100D1124A0901405B12C27FF71
:101880001FC0FB011182108288818F5F888388814D
:101890009801280F311D87FD3A95F6012A153B0561
:1018A0001CF488818C30C4F180819181049680344D
:1018B0009C4908F473C0F60180819181049670C040
:1018C00088819801280F311D87FD3A952A153B051F
:1018D000DCF68881A801480F511D87FD5A95FA0151
:1018E000EE0FFF1FE40FF51FEC57FB4F808186FFC3
:1018F000CBCF8881F801E80FF11D87FDFA95CF0164
:10190000EE0FFF1FE80FF91FEC57FB4F808160E0DF
:101910008F730E94630BB8CF808191812881A801C9
:10192000420F511D27FD5A959A01FA01EE0FFF1F34
:10193000E20FF31FEC57FB4F21813281820F931F7F
:10194000F7019183808388819801280F311D87FDDD
:101950003A95F901EE0FFF1FE20FF31FEC57FB4F13
:10196000808186FF22C08881080F111D87FD1A958E
:10197000F801EE0FFF1FE00FF11FEC57FB4F8081C6
:1019800061E08F73DF91CF911F910F91FF90EF90E6
:10199000DF90CF90BF90AF900C94630B80E49CE9F4
:1019A000F701918380838FEF8883DF91CF911F911F
:1019B0000F91FF90EF90DF90CF90BF90AF90089580
:1019C000DC011A96ED91FC9130E020E01994DC01E5
:1019D0001496ED91FC9130E020E040E060E1199434
:1019E000DC011696ED91FC9130E020E040E069E1E9
:1019F0001994DC011696ED91FC9130E020E040E076
:101A000068E119949A01DC011696ED91FC91462F3C
:101A100067E11994EF92FF920F931F93CF93DF9397
:101A20001F92CDB7DEB77C018B01D8016C91673175
:101A300029F150F46531A0F40F90DF91CF911F91FF
:101A40000F91FF90EF9008956A3118F16E3FA1F762
:101A5000F8014181498369E2C7010E94E00C0BC093
:101A6000F80141814983D7011696ED91FC9130E050
:101A700020E0C70119950E5F1F4FD7CFF801818174
:101A80008983AE014F5F5F4F61E0C7010E94020D85
:101A9000F2CF0F5F1F4FD7011696ED91FC9130E00A
:101AA00020E040E0C7011995C0CF462FDC01169613
:101AB000ED91FC9130E020E066E11994462FDC01C5
:101AC0001696ED91FC9130E020E065E11994EF92DB
:101AD000FF920F931F93CF93DF93EC01042F7901B3
:101AE000693039F48DE492E09983888380E28C8BAD
:101AF0003BC06A3009F040C0EA85FB8530E020E059
:101B000040E068E21995EE81FF8130E020E040E09E
:101B100064E1CE01199541E06BE4CE010E94E00C36
:101B2000E881F981448169E2CE010E94E00C40E045
:101B30006BE4CE010E94E00CE881F981448169E206
:101B4000CE010E94E00C41E06BE4CE010E94E00C6B
:101B5000E881F981458169E2CE010E94E00C60E0F4
:101B600072E0CE010E940A0D81E0DF91CF911F91BA
:101B70000F91FF90EF9008956D30D1F120F46B300C
:101B800079F180E0F2CF6E3009F444C06F30C9F7CC
:101B90000E94F90CF7011381110F110F110F6C89BD
:101BA000160F612F62956F706061CE010E945E0D0D
:101BB000612F6F70CE010E945E0DF7016481606B32
:101BC000CE010E945E0DF701408151816281660F56
:101BD000660F660FCE010E94020D0150A1F724C0CE
:101BE00068E472E0442309F4BCCF63E472E0B9CF47
:101BF000411108C06CE372E00E940A0DE881F9818E
:101C0000828975CF65E372E00E940A0DE881F9814F
:101C100083896DCF0E94F90C61E8CE010E945E0DB0
:101C2000602FCE010E94550DCE010E94F00C9CCF7A
:101C3000DC011896ED91FC9130E020E040E069E194
:101C40001994DC011896ED91FC9130E020E040E021
:101C500068E11994CF93DF931F92CDB7DEB7698304
:101C6000BE016F5F7F4F0E94450A0F90DF91CF91B9
:101C70000895EF92FF921F93CF93DF93EC01162FFD
:101C80007A010E94210E60E4CE010E942A0EE885AE
:101C9000F9859701412F67E1CE011995CE01DF91BA
:101CA000CF911F91FF90EF900C94180EEF92FF923E
:101CB0001F93CF93DF93EC01142F7901663181F1EB
:101CC00038F4643109F44BC0653179F080E022C00A
:101CD0006831C9F150F16931C9F78091AF028823A9
:101CE00091F1CE010E94180E2EC08091AF02882380
:101CF00019F0CE010E94180ECE010E94210E60E064
:101D0000CE010E942A0E612FCE010E942A0E81E090
:101D10008093AF02DF91CF911F91FF90EF900895D4
:101D2000642F0E942A0E81E0F5CF8091AF028823B4
:101D300019F0CE010E94180EA701193138F4612F55
:101D4000CE010E94390E1092AF02EDCF68E1CE01B4
:101D50000E94390E185188E1E80EF11CEDCF8E89F2
:101D60008F3F11F488E78E8BE885F9859701412F25
:101D700064E1CE01DF91CF911F91FF90EF90199414
:101D80000F93FC01E05CFF4F0190F081E02D4E1BB2
:101D90005F0BDC01D496ED91FC9119950F9108959C
:101DA000CF93DF93FC01A081B18182AD90E09C01D3
:101DB00043E0220F331F4A95E1F737AF26AF509625
:101DC0002C91509748E0249F9001112435AF24AF07
:101DD00023AD30E0B90153E0660F771F5A95E1F764
:101DE000EF01C05CDF4F7983688351964C91519726
:101DF000E901C80FD91F50E04C175D0718F4CA015C
:101E0000821B930BEF01CE5BDF4F798368832296B1
:101E100023E0880F991F2A95E1F7860F971F998372
:101E20008883229654968D919C91559799838883A7
:101E3000E85BFF4F56968D919C9191838083DF9153
:101E4000CF9108950F931F93FC01E25BFF4F019028
:101E5000F081E02DDC01A05BBF4F0D90BC91A02D67
:101E60004A175B0740F4E017F10748F0041715071D
:101E700030F080E019C0E017F107C0F3FACFFC01A1
:101E8000E65BFF4F40815181845B9F4FFC01808165
:101E900091816817790758F481E04217530720F0C1
:101EA00081E02617370728F71F910F9108954217F1
:101EB0005307B0F3DECF2F923F924F925F926F9213
:101EC0007F928F929F92AF92BF92CF92DF92EF92CA
:101ED000FF920F931F93CF93DF9300D000D000D0D9
:101EE0001F92CDB7DEB79A878987865B9F4F9A830B
:101EF0008983FC0111821082E985FA85EA5BFF4F34
:101F00004080518029853A85245B3F4F3C832B8359
:101F1000F90151824082E985FA85EE5BFF4F20800E
:101F2000318029853A85225B3F4F3E832D83F9011D
:101F300031822082E985FA85EC5BFF4F60807180F9
:101F400029853A85205B3F4F38872F83F9017182BD
:101F50006082E985FA85E85AFF4FE080F180E985E3
:101F6000FA85EC5AFF4FA080B180E985FA85EA5ADC
:101F7000FF4FC080D180E985FA85EE5AFF4F8080FF
:101F8000918087019501A601B40189859A850E94F7
:101F9000220F29853A852C573F4F3A87298781118F
:101FA0001BC0F90110822A960FB6F894DEBF0FBE4F
:101FB000CDBFDF91CF911F910F91FF90EF90DF90F8
:101FC000CF90BF90AF909F908F907F906F905F90D9
:101FD0004F903F902F90089581E0E985FA858083A6
:101FE0008114910421F0E981FA8191828082A41404
:101FF000B50420F4EB81FC81B182A0822C143D0455
:1020000020F4ED81FE81D182C082E614F70458F6F7
:10201000EF81F885F182E082C6CF0F93CF93DF93F3
:10202000E02FDC01AC57BF4FFC91FF2309F460C0E7
:102030002115310509F45CC02230310538F0023039
:1020400009F04AC06F5F7F4F621B730B0E2F017048
:10205000E0FD52C0FC01E25BFF4F0190F081E02DFA
:102060004E175F0708F444C0FC01E05BFF4F01908E
:10207000F081E02D4E175F07D8F5FC01E45BFF4FC0
:102080000190F081E02DDC01A65BBF4F0D90BC916B
:10209000A02D260F371F2617370738F56E177F0735
:1020A00018F59F0121503109A217B30708F56A17E7
:1020B0007B0708F4BD012E173F0708F4F901E61B62
:1020C000F70BEC01AEA9BFA914960D90BC91A02D01
:1020D0009F01FD0119950CC0033009F0B7CF4F5F88
:1020E0005F4F421B530BB2CFBD016E177F07E0F26B
:1020F000DF91CF910F910895FC01E65BFF4F0190B6
:10210000F081E02D6E177F0798F3FC01E45BFF4F31
:102110000190F081E02D6E177F0750F7FC01E05B26
:10212000FF4F0190F081E02DDC01A25BBF4F0D90CD
:10213000BC91A02D240F351F24173507A8F44E1786
:102140005F0788F49F0121503109A217B30780F679
:102150004A175B0708F4AD012E173F0708F4F90191
:10216000E41BF50BAECFAD014E175F0708F6EDCFC0
:10217000213069F038F0223079F0840F911D47FD4D
:102180009A950895860F911D67FD9A950895841B71
:10219000910947FD93950895861B910967FD9395D5
:1021A0000895213069F038F0223079F0861B9109CA
:1021B00067FD93950895840F911D47FD9A950895A5
:1021C000860F911D67FD9A950895841B910947FD1F
:1021D000939508953F924F925F926F927F928F9264
:1021E0009F92AF92BF92CF92DF92EF92FF920F93A6
:1021F0001F93CF93DF937C01162F442EEC01C25A1C
:10220000DF4F5E806F806C018AE8C80ED11C788435
:102210007518312E711608F4372C8C809D800E8530
:10222000202F462D652D8A819B810E94B8105C016C
:10223000202F462D652DC4010E94D110AC014420F1
:1022400079F08C85F6018083232D30E0B501C7013C
:102250000E940D10171548F017196394512CD7CF11
:102260008B858111F7CF8D85EDCF150D1E836F8284
:10227000DF91CF911F910F91FF90EF90DF90CF9062
:10228000BF90AF909F908F907F906F905F904F9096
:102290003F900895DC011A964C911A97ED91FC91AC
:1022A0001197249130E0042E02C0359527950A94A9
:1022B000E2F7842F860F883068F031961196FC93F0
:1022C000EE93E49198E0941B01C0EE0F9A95EAF723
:1022D0002E2B88501A968C938FEF9FEF01C0880F9A
:1022E0006A95EAF7809582230895FC01E60FF11DB7
:1022F000849190E0982F88273196E4918E0F911D5C
:102300000895AF92BF92CF92DF92EF92FF920F9318
:102310001F93CF93DF9300D01F921F92CDB7DEB7EC
:102320008C01DC01DA96AC90DA97DB96EC90DB97C7
:10233000ED91FC91B188FE2CD12CC12CD801ED91EE
:10234000FC9111978089D8962D913C911C82FD8239
:102350008B83B8E08B9FC00111248C9DA0018D9DC3
:10236000500D9C9D500D1124240F351F3A83298355
:10237000D8011496ED91FC919E012F5F3F4F41E0F3
:102380006FE0C8011995F3948F2D8E198A1528F4E2
:10239000BFEFCB1ADB0AFB1488F20F900F900F905F
:1023A0000F900F90DF91CF911F910F91FF90EF90C1
:1023B000DF90CF90BF90AF900895CF92DF92EF92D1
:1023C000FF920F931F93CF93DF93EC01962F683109
:1023D00009F44BC0B901993130F49431C9F0973107
:1023E00089F080E006C0993109F461C09032C9F7E4
:1023F00081E0DF91CF911F910F91FF90EF90DF90DF
:10240000CF90089550E088E793E00E94A00AF0CFB3
:102410008C859D85AE85BF85892B8A2B8B2B71F48E
:10242000E881F981A585B0E020EA36E841E050E096
:102430000E94C61C6C877D878E879F871092010340
:102440001092000310920303109202030E94910B5A
:1024500084E79AE090932B0380932A0385E79AE020
:1024600090932F0380932E03C3CF2C853D854E85FB
:102470005F8560E074E284EF90E00E94D91C2051F7
:10248000310941095109569547953795279520936C
:10249000B8008E8990E09595879591E09093DF0242
:1024A0008093AE021092030310920203A1CFD09149
:1024B0000203D13208F093C0C091AE020E94010C19
:1024C0006B017C0180915203811164C082E0809392
:1024D000520381E0809354038FEF80935103109255
:1024E0007603D0937503AFEBB2E0E5E5F3E080E06F
:1024F000D8137CC01092770380917703CC0FC82B40
:10250000C093770380915303813009F073C0109218
:1025100053030E94010C6B017C018091770380932F
:10252000BB008091050390910603A0910703B09131
:102530000803892B8A2B8B2B99F00E94010C0091A8
:1025400005031091060320910703309108036C19CD
:102550007D098E099F090617170728073907D8F143
:102560008091BC0083FDD9CF85EC8093BC000E9494
:10257000010C6B017C01809152038230E9F1809162
:1025800051038F3F61F180915103803241F180917D
:10259000510325C08091050390910603A091070384
:1025A000B0910803892B8A2B8B2B09F48BCF0E94C7
:1025B000010C00910503109106032091070330914F
:1025C00008036C197D098E099F090617170728074C
:1025D000390708F077CF809104030E94AF0B109267
:1025E0000303109202031092DF0202CF9D91919398
:1025F0008F5F7ECF85EEB9CF809105039091060362
:10260000A0910703B0910803892B8A2B8B2B09F427
:10261000B2CF0E94010C0091050310910603209196
:102620000703309108036C197D098E099F0906176D
:1026300017072807390708F09ECFCDCF8F929F92BA
:10264000AF92BF92CF92DF92EF92FF921F93CF9300
:10265000DF93EC016C32B0F46A32E8F5683241F194
:10266000693209F445C080E06034B0F16F73FE0157
:10267000E60FF11D868D8F3F71F1603108F06EC05D
:10268000642F13C06D3209F457C068F384EB860FD2
:10269000823048F76F73C60FD11D8E8D41115AC01D
:1026A00061E00E94D00B60E08E8D0E94630B13C02E
:1026B0007C012EE1E20EF11CD0E0F70181917F0157
:1026C0008F3F31F061E0D03108F062E00E94D00B22
:1026D000DF5FD63191F781E0DF91CF911F91FF90BD
:1026E000EF90DF90CF90BF90AF909F908F90089524
:1026F000C42ED12CF12CE12C0E94010C4B015C0169
:10270000C114D104E104F10431F30E94010C6819F1
:1027100079098A099B09683E73408105910580F318
:10272000F1E0CF1AD108E108F10828EE820E23E08B
:10273000921EA11CB11CE4CF85E090E0433010F064
:1027400082E090E0880F991F880F991F05970197E5
:10275000F1F7C1CF62E00E94D00BBDCF282F30E04F
:10276000F901E25AFD4F8491F901E85EFD4FF490C2
:10277000F901EE52FE4F1491112379F081110E945C
:10278000FC0AE12FF0E0EE0FFF1FEC57FE4FA59182
:10279000B491EC91FE2281E009F480E0898F9BCF17
:1027A000CF92DF92EF92FF920F931F93CF93DF931D
:1027B0006C01EB017B01E40EF51E10E000E0CE158C
:1027C000DF0561F06991D601ED91FC910190F081F6
:1027D000E02DC6011995080F191FF1CFC801DF912F
:1027E000CF911F910F91FF90EF90DF90CF900895C0
:1027F0002F923F924F925F926F927F928F929F9211
:10280000AF92BF92CF92DF92EF92FF920F931F93FE
:10281000CF93DF9300D000D01F921F92CDB7DEB7C9
:102820007C016C0124E0C20ED11CFC01E057FF4F7B
:102830000190F081E02DC60119958C018E3F9F4FCC
:1028400008F061C0370184E9680E711CF301019042
:10285000F081E02DFD83EC835701F2E9AF0EB11C4E
:10286000F50180809180970120593F4F3B832A8357
:10287000F9018081813009F470C008F45FC08230B2
:1028800009F476C0833009F482C0F701EC59FF4F98
:102890009182808232962C813D81318320833897CA
:1028A0008081918147969D838C830F3F110511F0A4
:1028B00008F020C1B6960136110530F40134110537
:1028C00058F0F701EE57FF4F808191812C813D81B7
:1028D000280F391F3D832C838C819D810196FC013B
:1028E000249121115FC090E080E0EA81FB8120818A
:1028F000213009F4C1C108F4B7C1223009F4BEC1C6
:10290000233009F4C3C181E090E028960FB6F89413
:10291000DEBF0FBECDBFDF91CF911F910F91FF9012
:10292000EF90DF90CF90BF90AF909F908F907F906F
:102930006F905F904F903F902F900895F701E05A6D
:10294000FF4F0190F081E02DC60119952C813D814A
:10295000280F391F3D832C8398CFF701E05AFF4F92
:102960000190F081E02DC6011995881A990A8DCF42
:10297000F701E05AFF4F0190F081E02DC601199553
:10298000EC81FD81E81BF90BFD83EC837ECFF70121
:10299000E05AFF4F0190F081E02DC6011995880E95
:1029A000991E73CFEC81FD8124912017110609F047
:1029B0009AC0CF010296009709F495CFF701EE591E
:1029C000FF4FF887EF83918380831286739660812F
:1029D0008F8198850E944A11EF81F8858087F701E1
:1029E000EA58FF4F60818F8198850E944A11582EC6
:1029F000EF81F8858187970122573F4F3D832C83D4
:102A0000F9019081EF81F885948781E0911180E050
:102A1000EF81F8858587F701E958FF4F8080682DA1
:102A20008F8198850E944A11382EF701E858FF4F90
:102A30002080622D8F8198850E944A11982EF7017F
:102A4000E758FF4F1081612F8F8198850E944A11AE
:102A50009FEF910F01E010E0980101C0220F9A95BD
:102A6000EAF7821B8E83EF81F885408414140CF002
:102A7000C4C08A94C80101C0880F8A94EAF7381A42
:102A8000F685F983950C2A94C80101C0880F2A9411
:102A9000EAF7282E29182F2F422D632DEF81F88574
:102AA000828193810E94B8104C01EF81F885938355
:102AB00082832981422D632D848195810E94D110CA
:102AC000EF81F88595838483F981F13009F49AC008
:102AD00008F44EC0F23009F4A4C0F33009F4B5C0D4
:102AE000BC0194014FC0FC0184912C813D81280FD1
:102AF000311DF0CEF701EA57FF4F80819181EC81C3
:102B0000FD81E80FF91FFD83EC834F0160E0C401F4
:102B10000E9475112C813D81280F391F3D832C8324
:102B200062E0C4010E94751134E0830E911C80178D
:102B3000910760F3EC81FD81849190E0982F8827C4
:102B40003196E4918E2B009709F4CDCE0817190722
:102B500021F48C819D8103962ECFEC81FD813296EC
:102B6000E4912C813D812E0F311D3D832C83E2CFDA
:102B70009401240D311D47FC3A95BC01650D711D72
:102B800057FC7A958B01AC01B401C6010E94220F5B
:102B9000882399F1EF81F885168217824701F3E7C0
:102BA0008F0E911C24E7E20EF11CF40160818F81ED
:102BB00098850E944A11082FF70160818F819885BE
:102BC0000E944A11182F40E0602FC6010E94EA10AF
:102BD00041E0612FC6010E94EA1061E08F81988573
:102BE0000E944A118111EFCFEF81F8858781851509
:102BF000E4F28485EC81FD818083FE818F2FFF0FBD
:102C0000990B73CE0519110957FC139594012F5F89
:102C10003F4FBC01640D711D47FC7A95800E911EDB
:102C2000B1CFA8014419510947FC539594012F5F76
:102C30003F4F0519110957FC1395BC016F5F7F4F7A
:102C4000800F911F840E951E9DCF9401250D311D7F
:102C500057FC3A950419110947FC1395BC016F5FA5
:102C60007F4F800F911F8ECFF50120813181820F20
:102C7000931F9183808347CEF301F7CFF501208125
:102C80003181281B390B318320833DCEF301F7CFEF
:102C9000089590E080E0089585ED8093BC008091D8
:102CA000050390910603A0910703B09108030796CE
:102CB000A11DB11D23E0B695A795979587952A95F7
:102CC000D1F72091BC0024FD03C010925203089557
:102CD000409105035091060360910703709108032A
:102CE000452B462B472B69F30097A105B10541F011
:102CF00025E32A95F1F700000197A109B109E1CF79
:102D0000809104030C94AF0BFC01A081B18150961B
:102D10002C9182AD38E0839FC0011124289FA0012F
:102D2000299F500D112470E060E080AD91AD0C94AE
:102D3000251D1F920F920FB60F9211240BB60F9202
:102D40002F933F934F935F936F937F938F939F93B3
:102D5000AF93BF93EF93FF938091B900887F803644
:102D600009F44DC008F040C0883209F4A9C028F524
:102D7000803109F49DC0C8F4882309F4FBC0883071
:102D800009F496C0FF91EF91BF91AF919F918F9100
:102D90007F916F915F914F913F912F910F900BBE5B
:102DA0000F900FBE0F901F901895883109F488C0BE
:102DB000803241F78093510314C0803409F49DC0E0
:102DC00040F48033B9F38833E9F68093510385ECFE
:102DD000B0C0803509F485C0883509F496C08834C0
:102DE00089F60E944C16CECF883909F48CC038F58C
:102DF000883729F050F4883611F0803719F683E0CF
:102E0000809352031092500357C0883809F47BC056
:102E1000803919F0803809F0B5CF809150038032A5
:102E200008F071C0E091500381E08E0F8093500351
:102E30008091BB00F0E0E05DFC4F80833DC0803BB3
:102E400039F0E0F4803A09F479C0883A09F09ACF71
:102E500084E08093520310922D0310922C03E09192
:102E60002A03F0912B03199580912C0381110FC037
:102E700081E080932C0310920A0309C0803C09F47E
:102E8000A6CF883C09F4A3CF883B09F07BCFE09123
:102E90002D0381E08E0F80932D03F0E0E65FFC4F61
:102EA00080818093BB0090912D0380912C0329C0D9
:102EB000809177038093BB0085EC8093BC0062CF48
:102EC0009091760380917503981758F5E0917603F9
:102ED00081E08E0F80937603F0E0EB5AFC4F808107
:102EE000E9CFE091760381E08E0F809376038091A5
:102EF000BB00F0E0EB5AFC4F808390917603809109
:102F000075039817C8F285E8D8CFE091760381E081
:102F10008E0F809376038091BB00F0E0EB5AFC4F5C
:102F200080838091540381115CCF81E080935303AF
:102F300084EA8093BC001092520324CF85EC8093E6
:102F4000BC001092520380915003803230F4E09123
:102F50005003F0E0E05DFC4F10826091500370E0A0
:102F6000E0912E03F0912F0380E393E019951092E6
:102F7000500308CF1092510334CF1F920F920FB617
:102F80000F9211242F933F938F939F93AF93BF93EF
:102F90008091B7029091B802A091B902B091BA02A3
:102FA0003091B60223E0230F2D3758F50196A11D6D
:102FB000B11D2093B6028093B7029093B802A093FC
:102FC000B902B093BA028091BB029091BC02A09169
:102FD000BD02B091BE020196A11DB11D8093BB023E
:102FE0009093BC02A093BD02B093BE02BF91AF917B
:102FF0009F918F913F912F910F900FBE0F901F9037
:10300000189526E8230F0296A11DB11DD2CF1F925D
:103010000F920FB60F9211240BB60F922F933F937E
:103020004F935F936F937F938F939F93AF93BF93D0
:10303000EF93FF9348E251E064E271E090E080E0BA
:103040000E94260CFF91EF91BF91AF919F918F91BC
:103050007F916F915F914F913F912F910F900BBE98
:103060000F900FBE0F901F9018951F920F920FB6E2
:103070000F9211240BB60F922F933F934F935F93B0
:103080006F937F938F939F93AF93BF93EF93FF9330
:1030900048EA50E064EA70E083E090E00E94260C89
:1030A000FF91EF91BF91AF919F918F917F916F9120
:1030B0005F914F913F912F910F900BBE0F900FBEDC
:1030C0000F901F9018951F920F920FB60F92112418
:1030D0000BB60F922F933F934F935F936F937F9312
:1030E0008F939F93AF93BF93EF93FF9348E950E083
:1030F00064E970E082E090E00E94260CFF91EF917D
:10310000BF91AF919F918F917F916F915F914F91FF
:103110003F912F910F900BBE0F900FBE0F901F90FD
:1031200018951F920F920FB60F9211240BB60F92A3
:103130002F933F934F935F936F937F938F939F93BF
:10314000AF93BF93EF93FF9348E850E064E870E0DB
:1031500081E090E00E94260CFF91EF91BF91AF912A
:103160009F918F917F916F915F914F913F912F919F
:103170000F900BBE0F900FBE0F901F901895CF931E
:1031800010927B0310927A0388EE93E0A0E0B0E007
:1031900080937C0390937D03A0937E03B0937F0381
:1031A00089E692E0909379038093780380911405E7
:1031B000803308F0BEC091E0980F9093140580937F
:1031C000AB0590E0FC01EE0FFF1FE80FF91FEC5775
:1031D000FB4F88EB9BE0928381831092180510923D
:1031E000170582EB99E09093A6058093A5051092B0
:1031F000A8051092A7051092AA051092A905109291
:1032000031058BE792E09093160580931505109297
:103210001A051092190510922E051092250510928C
:10322000260510922705109228058FEF80932F0511
:1032300080933305E7E3F5E08DE495E0CFEFC193AC
:103240008E179F07E1F787E69DE090931E05809318
:103250001D0586E59EE09093200580931F058DED6A
:1032600091E190932205809321058EE193E1909363
:1032700024058093230530E020E040E069E089E107
:1032800095E00E94670D10927405109273058CEB07
:1032900099E090934E0580934D0584E893E09093D8
:1032A00052058093510584E0809353051092540594
:1032B000109282051092A20510929E0581E08093E3
:1032C000A3058093A40583E892E090935005809332
:1032D0004F0589E195E00E94D00E10926C05109286
:1032E0006B051092700510926F058FEF9FEF909312
:1032F0006E0580936D059093720580937105E09142
:103300004F05F09150050280F381E02D89E195E0B1
:1033100019958BE29AE0909376058093750510924B
:103320008505C0934205C0934305C0934405CF91E2
:1033300008958FEF8093AB0550CFCF93DF93CDB738
:10334000DEB7A1970FB6F894DEBF0FBECDBF78945D
:1033500084B5826084BD84B5816084BD85B582609A
:1033600085BD85B5816085BD80916E00816080934B
:103370006E001092810080918100826080938100B4
:1033800080918100816080938100809180008160C4
:10339000809380008091B10084608093B10080911F
:1033A000B00081608093B000809191008260809332
:1033B00091008091910081608093910080919000B4
:1033C0008160809390008091A10082608093A10031
:1033D0008091A10081608093A1008091A000816014
:1033E0008093A000809121018260809321018091CF
:1033F000210181608093210180912001816080936F
:10340000200180917A00846080937A0080917A0014
:10341000826080937A0080917A00816080937A0044
:1034200080917A00806880937A001092C100809128
:10343000AB05803308F054C061E083E00E94D00BFC
:103440008091AB05282F30E0F901EE0FFF1FE20F4E
:10345000F31FEC57FB4F9081907C936090839EE824
:103460009093AC0594E69093AD052CE0622F0E94FA
:103470000A1D829FB001112430E020E0AB01420F11
:10348000531FFA01EE0FFF1FE40FF51FEC57FB4F20
:10349000908196FD17C02F5F3F4F2C30310571F79B
:1034A000813009F055C11092800082E08093810044
:1034B0001092850010928400B19A80916F00826012
:1034C00080936F00E091AB058E2F90E0FC01EE0F32
:1034D000FF1FE80FF91FEC57FB4F8081806480834A
:1034E000E0911D05F0911E0530E020E040E06AE02B
:1034F00089E195E019958091A405882321F089E15F
:1035000095E00E94841680E00E942E0A89E195E0F1
:103510000E9481111091540580915305180FE0917C
:103520001905F0911A058189181708F43DC189E140
:1035300095E00E94E70C80E00E942E0AE0911D05B4
:10354000F0911E0530E020E040E06BE089E195E07D
:1035500019958091730590917405845A924009F0F1
:103560002DC1AAE0CA2ED12CE12CF12CB8E82B2ECB
:10357000312C14EB812E912CA12CB12C80917B004D
:10358000877F80937B0041E440937C0080917A00A8
:10359000806480937A0080917A0086FDFCCF8091D0
:1035A0007800A0917900BA2FA82F24EB30E00E9478
:1035B0001E1D2FEF33E040E050E00E94A71C2901C0
:1035C0003A013093B5022093B40289E195E00E945C
:1035D00084168AE090E09093A8058093A705EEE119
:1035E000F0E0F093AA05E093A90577FE9AC16DE299
:1035F00085E195E00E94F81322273327A9012419B9
:1036000035094609570919A28E010F5D1F4FCA01DE
:10361000B901A70196010E94D91C605DF80162936F
:103620008F01211531054105510589F70115110556
:1036300061F001900020E9F73197AF01401B510B79
:10364000B80185E195E00E94D01389E195E00E94E0
:10365000811189E195E00E94E70CA091B402B0913C
:10366000B502A032F2E0BF07BCF58091AC052101A4
:10367000481A510887FD5394440C551C440C551CA2
:10368000052C000C660877088091AD0528E532E02E
:10369000281B310987FD3395220F331F220F331F5B
:1036A000032E000C440B550B241935094609570904
:1036B000A53BB10514F0A4EBB0E0B7FF02C0B0E049
:1036C000A0E00E94D11CA50194010E94A71C420EFB
:1036D000531E641E751ED2012091AB05203380F568
:1036E0008091AC05A101481B510987FD5395CA0182
:1036F000880F991F880F991FA817B9078CF0809120
:10370000AD05E8E5F2E0E81BF10987FDF395CF018F
:10371000880F991F880F991FA817B9070CF4CD01BE
:103720000297880F991F4FB7F89430E0F901EE0F18
:10373000FF1FE20FF31FEC57FB4F928381834FBFB4
:1037400040E050E0452B09F419CF0E94000016CF4D
:10375000823061F410929000809391001092950055
:103760001092940088BB80937100ACCE833069F4D2
:103770001092A00082E08093A1001092A500109208
:10378000A40089BB809372009DCE81119BCE1092C4
:10379000200182E0809321011092250110922401E2
:1037A0008ABB809373008ECE8091A405882321F07C
:1037B00089E195E00E948416812FA6CEE4EAF2E02A
:1037C000F0937405E0937305E491E0938605E5EAD0
:1037D000F2E0E491E0938705E6EAF2E0E491E09319
:1037E0008805E7EAF2E0E491E0938905E8EAF2E08F
:1037F000E491E0938A05E9EAF2E0E491E0938B0535
:10380000EAEAF2E0E491E0938C05EBEAF2E0E4917D
:10381000E0938D05ECEAF2E0E491E0938E05EDEAA9
:10382000F2E0E491E0938F05EEEAF2E0E491E093B8
:103830009005EFEAF2E0E491E0939105E0EBF2E02D
:10384000E491E0939205E1EBF2E0E491E0939305DB
:10385000E2EBF2E0E491E0939405E3EBF2E0E49133
:10386000E0939505E4EBF2E0E491E093960561E1E5
:1038700084EA92E00E9475119093980580939705D1
:1038800063E184EA92E00E94751190939A05809317
:10389000990565E184EA92E00E94751190939C0578
:1038A00080939B058091730590917405892B09F491
:1038B00058CE8091930580939F0540919405409345
:1038C000A00590919E05992309F44BCE913071F497
:1038D00090919505891714F490939F058091960512
:1038E00084170CF03ECE8093A0053BCE309190051E
:1038F00020919205082E000C990B622F022E000CCD
:10390000770B630F711D37FD7A95861797071CF4A7
:10391000320F30939F0524170CF023CE2093A0057F
:1039200020CEA301920119A28E010F5D1F4FCA0183
:10393000B901A70196010E94D91C605DF80162934C
:103940008F01211531054105510589F76FCE052EEF
:1039500097FB1EF400940E94BE1C57FD07D00E94E6
:10396000D91C07FC03D04EF40C94BE1C5095409516
:10397000309521953F4F4F4F5F4F0895909580951B
:10398000709561957F4F8F4F9F4F08950E94FB1C4C
:10399000A59F900DB49F900DA49F800D911D1124A3
:1039A0000895B7FF0C94C61C0E94C61C821B930B83
:1039B0000895A1E21A2EAA1BBB1BFD010DC0AA1F70
:1039C000BB1FEE1FFF1FA217B307E407F50720F088
:1039D000A21BB30BE40BF50B661F771F881F991F03
:1039E0001A9469F760957095809590959B01AC014C
:1039F000BD01CF010895A29FB001B39FC001A39F55
:103A0000700D811D1124911DB29F700D811D112417
:103A1000911D0895991B79E004C0991F961708F02D
:103A2000961B881F7A95C9F780950895EE0FFF1FA2
:103A3000881F8BBF0790F691E02D19940E94FB1C04
:103A4000B7FF0895821B930B0895DC0101C06D93AD
:0C3A500041505040E0F70895F894FFCF7B
:103A5C001815AE15D5168015A8161F15D3160015FA
:103A6C0040158D16141520160015A115C815DA165B
:103A7C0012158116CF15D9162215DB1600152E1529
:103A8C00A415A619FF1815A015C019FF1815A11516
:103A9C00C819FF1815AE19FF1815AF19FF0001143E
:103AAC000A6464323200127A00000428960804205A
:103ABC00204000200000000000CD0AA00A49167624
:103ACC000A990A860A770A00000000F813D01349F5
:0A3ADC00164816D00E5B0FC00E0056
:00000001FF
