:100000000C94F8050C9429060C9429060C942906E6
:100010000C9429060C9429060C9429060C942906A4
:100020000C9429060C9429060C9429060C94290694
:100030000C9429060C9429060C9429060C94290684
:100040000C9429060C94B0170C9429060C942906DC
:100050000C9429060C9429060C9429060C947C1601
:100060000C9429060C94F0160C94C6160C942906D0
:100070000C9429060C9429060C9429060C94290644
:100080000C9482170C9429060C9429060C942906CA
:100090000C9429060C9429060C9429060C945815E6
:1000A0000C9429060C9429060C9454170C942906D8
:1000B0000C9429060C9429060C9429060C942617F6
:1000C0000C9429060C9429060C9429060C942906F4
:1000D0000C9429060C9429060C9429060C942906E4
:1000E0000C9429060C940F0A0C94D3070C94BC07AB
:1000F0000C9435060C94CF080C9417090C94ED065B
:100100000C94FF060C9412070C941A0E0C94B90868
:100110000C94DD110C94C0070C94F3080C94A40605
:100120000C94ED090C94940A0C9499070C94CE0746
:100130000C949C080C94010A0C94D8070C94A10709
:100140000C9410090C94CA070C948F0D0C94EF06B4
:100150000C9407150C94AE070C94FF080C94A80798
:100160000C94D4070C94EC080C9408150C944607D6
:100170000C942B060C94260C0C94A5070C94C60723
:100180000C94A8080C94DE090C949C100C94F006B6
:100190000C94B7120C949D070C94B8070C94DE17BE
:1001A0000C94150D0C94470A0C94B2070C947F0D17
:1001B0000C94EE060C94B1090C94EA080C94930785
:1001C0000C9419070C948F120000200023002600C5
:1001D00029002C002F00320000010000030106015D
:1001E000090100002100240027002A002D00300012
:1001F000330001010000040107010A010000220090
:10020000250028002B002E003100340002010000E0
:10021000050108010B010505050507050808080883
:10022000020202020A0A080804040404010101018E
:100230000101010103030303030303030407070789
:100240000C0C0C0C0C0C0C0C02020202060606062E
:10025000060606060B0B0B0B0B0B0B0B01021020FB
:1002600020080810204010204080020102010804EC
:100270000201010204081020408080402010080480
:1002800002018004020180402010080402010804D9
:10029000020101020408102040800102040810201D
:1002A000408000000A0B02090C0D0E080703040130
:1002B000000000000000000000000000000000003E
:1002C000000000000000000000000000000012110B
:1002D000100000000000000000000000000000000E
:1002E0000000000000000000E0000302030403041B
:1002F00004060C00FE08FE09FF0143028A08E920FB
:100300000500A203210641A3E31222079BBA23B1F1
:1003100004230B2DAEA732289541A900240F559E2A
:100320002B5B2A4AB62551A254B608250E45A26772
:100330005012A59BA428899400260D45A247AAD453
:100340002A5192489112270519BB632808D39E2B86
:1003500029F5562909D39E232BF552022A0A2DAEE0
:10036000AB52599A22002B0A2DA62B8C06298C0001
:100370002C08A29A634814002D058BAE632E06123A
:10038000A363082F0C559AB3166661166661083090
:100390000D45A267C9A42599342D5900310945A2FC
:1003A0002B1A7B1A04320A45A267C9C2ACE3203378
:1003B0000C45A267C9C2480DB56401340C45A22F93
:1003C00093925232686136350C45A2E3180E69A843
:1003D000250B00360C45A26709C321C96CC9023739
:1003E0000A45A263106BC52600380C45A267C9B444
:1003F00064C96CC902390C45A267C96CC91056168C
:10040000003A0832A3630887003B09C29A63088751
:1004100044013C07BCA62F6A6C3D081DAE63500723
:10042000013E08BCA6236C6A033F0B45A267C9C204
:100430005A1D8A00400E45A267C994214994214C57
:100440008700410D45A22B4BA2A4A60D43A6054251
:100450000D45A26348326D5032DBA000430A45A22D
:1004600067C9C46EC902440A45A2634832DF060563
:10047000450B45A2E3180E49581C04460A45A2E361
:10048000180E49D808470C45A267C9C4D2A6250B47
:1004900000480A45A223B30D43E616490A45A26364
:1004A00090C29E06014A0A45A2B3A3A6250B004BA3
:1004B0000D45A223939292A62551250B4C0845A2E7
:1004C00023ECE3204D0C45A2235B96444934B7004E
:1004D0004E0B45A2239B9444DADC024F0A45A267E7
:1004E000C97C4B1600500C45A26348326D50C24681
:1004F00000510A4D9E67C97CA9AC01520C45A2630C
:1005000048326D5032B700530B45A267C9D435D479
:100510009205540945A26390C23E01550945A223A4
:10052000F35BB200560C45A223734B4A49164600B2
:10053000570A45A223F39228C92D580B45A223B38D
:1005400025B54A4D0B590A45A223734B6A61095AD6
:100550000A45A26310B38EE1205B08529F63E9173E
:10056000015C0CD59A234CC3344CC3340C5D08D2C7
:100570009E43E997015E081DB62B4B6A015F060E8C
:100580009AE300600692BE230A61092DA267D04C4F
:100590008A12620C45A2232C0E49661B14006309C3
:1005A0002DA267C9C47408640A45A2B365D06CC99A
:1005B00010650A2DA267C986211D02660AC4A24BD6
:1005C00089A6AC1300670C3D9A67D06CC910260B46
:1005D00000680A45A2232C0E49E6166908C3A22723
:1005E000975A066A09539A2B973A2D006B0B45A22E
:1005F000236C4A4A53250B6C08C3A243EACB006D17
:100600000C2DA263482A4AA2244A016E092DA22376
:100610003169B6006F092DA267C96CC902700C3D23
:100620009A634832DBA0842100710A3D9A67D06C3E
:10063000C9101672092DA2233189450073092DA214
:1006400067500F0A007409C4A2272B4D5951750930
:100650002DA22373529400760B2DA223D392529293
:100660004500770C2DA22349944449942E00780A22
:100670002DA2234B6A955A00790B3D9A23734B8622
:100680003059007A092DA263D0DA06017B0ADB9A81
:100690002B895AB2A82D7C06519FE3217D0BDB9A52
:1006A000238BDA92A825027E0615B2C7057F0500C6
:1006B000A203800500A203810500A20382071A9EFF
:1006C000275100830B659A4F0ADBB6B09306840866
:1006D0001C9EA745490085060DA223298609B3AAB9
:1006E0002759A21600870AB3AA2759A2644900888D
:1006F0000693BEA70189114EA2675822A59484A132
:1007000092283D2509008A0D55A2A7962D99BA86F3
:100710005AB2008B0722A24789028C0F45A267506C
:10072000A2244A94521225D9108D0500A2038E05E9
:1007300000A2038F0500A203900500A20391071AEF
:10074000B747490092071AB727510093089CB6276C
:10075000515A0094089CB6A745490095082DAAE770
:10076000F0650196058BAE6397060EAEE300980622
:1007700015BEC70599091EB663482A4B329A0B4D20
:10078000A2A796C3837A50009B0822A2234A140092
:100790009C0A2DA2A78B322459229D0500A2039EFC
:1007A0000500A2039F0C55A2A70E66B6A4169600DC
:1007B000A00500A203A107C1A3231906A20D3D9E17
:1007C0002B5B2A4A9464431401A30C4DA247AA84CC
:1007D00053D8362800A40B2DA6234BA6245AB200CA
:1007E000A50D45A2234B2A83140D525802A6085189
:1007F0009F63888600A7125D9E67C99248892A591F
:100800001255A4244B1600A8068BBE2309A90D453A
:10081000A2638D144D4B942C9900AA0BBCAE678833
:10082000A464478600AB0925A2279292A801AC07D1
:100830001DAA63100BAD060DAE6310AE0D3DA66391
:100840004D24255192495100AF058BBE63B009A4D8
:10085000B64789A44401B10B35A62B8C06298C061A
:1008600001B208A3BA434B9201B308ABB6434BA401
:1008700005B40714BF675800B50E3D9A234AA22459
:100880004AA264114300B6124DA267501225512AA4
:100890004394444994444900B70612AF6308B8082A
:1008A0009C9A63488605B907A3BA43AA0CBA0BBC45
:1008B000AE4789A444878600BB0925A2236A89A480
:1008C00004BC0E56A243AD0D49D89444DA9A00BD3B
:1008D0000D56A243AD0D49D8A284C501BE0F56A244
:1008E000430EA54AA284A524D2D604BF0B45A22B51
:1008F00087B2622D5900C00F55A2270DB3244A6A52
:10090000DA30645A00C10E55A2AF98255152D386F1
:1009100021D302C20F55A22B4B72244BA2A4360C3A
:100920009916C30D55A2C7AD1225356D18322DC4C9
:100930000F55A2A78E644994D4B461C8B400C50F02
:1009400055A22B4BB24A94D4B461C8B400C60F452B
:10095000A26750A2241A925212255132C70B559AFF
:1009600067C9C46EC95603C80D55A2278D86311CB0
:1009700092B03808C90C55A2AF348CE19084C541BF
:10098000CA0E55A22B4B92610C87242C0E02CB0C65
:1009900055A2A73C8CE19084C541CC0B55A2278D74
:1009A0000629EC6910CD0B55A2AF3448614F830086
:1009B000CE0C55A22B4BE2410A3B0D02CF0B55A2A8
:1009C000A73C48614F8300D01146A26788B2241B20
:1009D000A2244BB2244B8604D10C55A2C7259B946C
:1009E00044DADC02D20B55A227CD96CCB76401D3F2
:1009F0000B55A2AFB664BE250B00D40C55A22B4BF1
:100A0000F225F3962C00D50B55A2C769C97C4B166D
:100A100000D60B55A2A7BE64BE250B00D70A2DAA8F
:100A2000234B6A955A00D80D45A267C9A42599346D
:100A30002D5900D90B55A2278D32BF250B00DA0A9C
:100A400055A2AF94F92D5900DB0B55A22B4BE2CCEC
:100A5000B76401DC0A55A2A79CF92D5900DD0B559E
:100A6000A2AF94B925B5B004DE0C45A2231C92CCEC
:100A700036286108DF0E559E4B8A34298992CC4571
:100A80000901E00C4DA22BCDD14133294A00E10BE5
:100A90004DA2AF0E0F9A495102E20C4DA22B4B72A0
:100AA00074D04C8A12E30B4DA2C71D1D3493A204CF
:100AB000E40B45A2A78E0E9A495102E50D4DA22BDB
:100AC0004BB21C193493A204E60B2DA267A928434C
:100AD000920D01E70B3D9A67C9C47488B20CE80C0B
:100AE0004DA227CDE1251B867408E90C4DA2AF0E5F
:100AF0002FD930A44300EA0D4DA22B4B7274C98646
:100B0000211D02EB0C45A2A78E2ED930A44300EC88
:100B100009CBA223CBA59601ED09CBA22BC9A596A3
:100B200001EE08CBA2A7596A19EF09C3A22389A530
:100B30009601F00C4DA247532B83664B1600F10A29
:100B40004DA2C71D4C4C9A2DF20C4DA227CDE1258C
:100B5000B3250B00F30B4DA2AF0E2F992D5900F4C6
:100B60000C4DA22B4B7274C96CC902F50B4DA2C778
:100B70001D5D325BB200F60B45A2A78E2E992D5952
:100B800000F7082DA62B1FF408F80B2DA2678996F5
:100B9000644A1600F90B4DA227CDD1CC495102FA77
:100BA0000A4DA2AF8E664E8A12FB0C4DA22B4B72E1
:100BB0003073529400FC0A45A2A70E664E8A12FDBD
:100BC0000D5D9AAF8E666EC910260B00FE0D559A0C
:100BD000232C0E49661B943004FF0D559AA70E6610
:100BE0006EC910260B0000000004FFFF0000DE1796
:100BF00011241FBECFEFD1E2DEBFCDBF00E00CBF9E
:100C000012E0A0E0B2E0E2E5F1E400E00BBF02C0D8
:100C100007900D92AE3AB107D9F726E0AEEAB2E0FE
:100C200001C01D92A938B207E1F715E0C8EFD5E081
:100C300000E006C021970109802FFE010E94A71D38
:100C4000C73FD10780E00807A9F70E9445190C9417
:100C5000A7200C940000662329F06A3019F0862F33
:100C600090E008958FEF9FEF0895AF92BF92CF92DB
:100C7000DF92EF92FF920F93CF93DF93EC01DA01B3
:100C80007901942F9770E1E0F0E09F01092E01C0F7
:100C9000220F0A94EAF7522F6E018AE8C80ED11C7F
:100CA000F601808140E0823018F4422F813049F112
:100CB0005D01F8EFAF22E8ADF9AD28813981D901A6
:100CC00050968C918A9D90018B9D300D1124620F5E
:100CD000731FDF01A60FB71F01111AC0EA0EFB1E1A
:100CE0008C91842B85278D93AE15BF05C9F7DF91B5
:100CF000CF910F91FF90EF90DF90CF90BF90AF908A
:100D0000089550E0D5CF440F550FE114F10479F365
:100D10003C91342B35273C939F5F9770E1E0EE1AAE
:100D2000F1089111F0CF2CAD3DADA20FB31FF6012C
:100D30008081823028F4813009F051E041E0E5CF34
:100D400051E0E3CF80E0089590E080E00895CF93F4
:100D5000DF93C0EFD5E08FAFEAADFBAD0190F0813E
:100D6000E02D84EF95E01995EAADFBAD0280F381AB
:100D7000E02D84EF95E0DF91CF9119949B01DC0188
:100D80001896ED91FC9141E067E119942091500390
:100D9000260F3327331F21323105ECF420917603DF
:100DA000FC0190E080E0243069F082E00895A09199
:100DB00050032191AC01425D5C4FA40FB52FB11DD2
:100DC0002C930196861798F380915003680F6093D7
:100DD000500380E0089581E00895089508950895EE
:100DE000E091250380912403E81730F4F0E0EC5FF4
:100DF000FC4F808190E008958FEF9FEF08959091D0
:100E00002503809124032FEF3FEF981748F4E92F33
:100E1000F0E0EC5FFC4F208130E09F5F9093250372
:100E2000C90108958091240390912503891B990B92
:100E30000895CF92DF92EF92FF920F931F93CF937B
:100E4000DF937C01CB018A0120910303222389F0E7
:100E5000EB016B01C40ED51ECC15DD0569F069915F
:100E6000D701ED91FC910190F081E02DC70119951A
:100E7000F3CF642F0E94C606C801DF91CF911F9166
:100E80000F91FF90EF90DF90CF900895CF93DF9375
:100E90001F92CDB7DEB76983209103032223F9F0B7
:100EA00020912603203258F021E030E0FC0133830A
:100EB000228390E080E00F90DF91CF9108958091A0
:100EC0002703E82FF0E0ED51FD4F998190838F5F6C
:100ED000809327038093260381E090E0ECCF61E0CC
:100EE000CE0101960E94C606F7CF8150823108F0EC
:100EF0005AC0E82FF0E08827EF57F84F8F4F0C9437
:100F0000A71DA107A507930799079D07D307A80762
:100F1000AE07B207B807BC07C007C607CA07D307A2
:100F2000CE07D407D807809180008F778093800008
:100F30000895809180008F7DF9CF80918000877F18
:100F4000F5CF84B58F7784BD089584B58F7DFBCFB1
:100F50008091B0008F778093B00008958091B000A9
:100F60008F7DF9CF809190008F77809390000895C6
:100F7000809190008F7DF9CF80919000877FF5CF91
:100F80008091A0008F778093A00008958091A000A9
:100F90008F7DF9CF8091A000877FF5CF80912001D0
:100FA0008F77809320010895809120018F7DF9CF64
:100FB00080912001877FF5CF1F93CF93DF93282F58
:100FC00030E0F901EE55FD4F8491F901E45AFD4FEF
:100FD000D491F901EA5EFD4FC491CC23A9F0162FFC
:100FE00081110E947507EC2FF0E0EE0FFF1FE45017
:100FF000FE4FA591B4918FB7F894EC91111108C0F0
:10100000D095DE23DC938FBFDF91CF911F910895A0
:10101000DE2BF8CFCF93DF93EC018091DE0590912A
:10102000DF05029749F4C130D10509F43DC07CF5D4
:1010300060E0209709F439C08091DE059091DF05CA
:10104000049749F4C130D10509F45EC00CF039C0F1
:10105000209709F444C08091DE059091DF05059743
:1010600009F0E7C0CA30D10508F0E3C0FE018827C7
:10107000E35CF74F8F4F0C94A71D9C08A808B90894
:10108000CF08EA08EC08F308FF0810091709C23076
:10109000D105A9F060E0C330D10571F68091E20579
:1010A0000E94DC0760E006C061E08091E2050E94DA
:1010B000DC0761E08091E4050E94DC07BDCF61E0C0
:1010C000EDCFC230D10539F1C330D10509F0C3CF1E
:1010D00061E08091E2050E94DC0760E022C061E0EF
:1010E0008091E2050E94DC0760E08091E4050E94A7
:1010F000DC0761E08091E6050E94DC0760E08091FA
:10110000E8050E94DC07A7CF60E08091E2050E941D
:10111000DC0761E0EACF60E08091E2050E94DC0735
:1011200061E08091E4050E94DC0760E08091E605C3
:101130000E94DC0761E0E3CF60E08091E2050E945D
:10114000DC0761E08091E4050E94DC0761E00BC0F0
:1011500060E08091E2050E94DC0761E08091E40597
:101160000E94DC0760E08091E6050E94DC0760E0F9
:1011700010C060E08091E2050E94DC0761E0809190
:10118000E4050E94DC0760E08091E6050E94DC0730
:1011900061E08091E8050E94DC0761E015C060E035
:1011A0008091E2050E94DC0761E08091E4050E94E5
:1011B000DC0760E08091E6050E94DC0761E0809139
:1011C000E8050E94DC0760E08091EA05DF91CF919D
:1011D0000C94DC0761E0E4CF61E08091E2050E94BD
:1011E000DC0760E0E2CF61E08091E2050E94DC076D
:1011F00060E08091E4050E94DC0761E0DBCF61E004
:101200008091E2050E94DC0760E08091E4050E9485
:10121000DC0761E08091E6050E94DC0760E0CFCF4B
:1012200061E08091E2050E94DC0760E08BCF60E026
:10123000F8CFDF91CF9108951092760381E08093EB
:1012400078031092770361E084E10E94DC0761E09B
:1012500085E10E94DC07E9EBF0E080818E7F8083EE
:1012600080818D7F808388E48093B80085E48093BB
:10127000BC000895CF93DF9391E090932D038823D2
:10128000B9F0C091B800D091BA008091BC008A7BBF
:101290008093BC0060E084E10E94DC0760E085E1AF
:1012A0000E94DC070E941C09D093BA00C093B800CA
:1012B000DF91CF910895CF93DF9390E0FC01E45A42
:1012C000FD4F24918A5E9D4FFC0184918823D1F0CB
:1012D00090E0880F991FFC01EE51FE4FA591B4914B
:1012E000FC01E450FE4FC591D491623071F49FB778
:1012F000F8943C91822F809583238C93E8812E2B48
:1013000028839FBFDF91CF9108958FB7F894EC9118
:101310002E2B2C938FBFF6CF3FB7F8948091DF022E
:101320009091E002A091E102B091E20226B5A89B63
:1013300005C02F3F19F00196A11DB11D3FBFBA2F67
:10134000A92F982F8827BC01CD01620F711D811D27
:10135000911D42E0660F771F881F991F4A95D1F7AC
:101360000895AF92BF92CF92DF92EF92FF920F93C8
:101370001F93CF93DF936C017B018B01040F151F2B
:10138000EB015E01AE18BF08C017D10759F0699193
:10139000D601ED91FC910190F081E02DC6011995E7
:1013A000892B79F7C501DF91CF911F910F91FF90A4
:1013B000EF90DF90CF90BF90AF900895FC01538DD8
:1013C000448D252F30E0842F90E0821B930B54171F
:1013D00010F0CF96089501970895FC01918D828DAC
:1013E000981761F0A28DAE0FBF2FB11D5D968C9145
:1013F000928D9F5F9F73928F90E008958FEF9FEF84
:101400000895FC01918D828D981731F0828DE80F3F
:10141000F11D858D90E008958FEF9FEF0895FC01F9
:10142000918D228D892F90E0805C9F4F821B9109C6
:101430008F739927089588EA93E00E940F0A21E0AC
:10144000892B09F420E0822F0895FC01A48DA80FB8
:10145000B92FB11DA35ABF4F2C91848D90E00196F6
:101460008F739927848FA689B7892C93A089B18916
:101470008C91837080648C93938D848D981306C0B7
:101480000288F389E02D80818F7D80830895EF921B
:10149000FF920F931F93CF93DF93EC0181E0888F2E
:1014A0009B8D8C8D98131AC0E889F989808185FFFE
:1014B00015C09FB7F894EE89FF896083E889F989A0
:1014C00080818370806480839FBF81E090E0DF91A2
:1014D000CF911F910F91FF90EF900895F62E0B8DF5
:1014E00010E00F5F1F4F0F731127E02E8C8D8E11B0
:1014F0000CC00FB607FCFACFE889F989808185FF17
:10150000F5CFCE010E94250AF1CFEB8DEC0FFD2F18
:10151000F11DE35AFF4FF0829FB7F8940B8FEA89D1
:10152000FB8980818062CFCFCF93DF93EC01888DE0
:101530008823B9F0AA89BB89E889F9898C9185FD4E
:1015400003C0808186FD0DC00FB607FCF7CF8C91DC
:1015500085FFF2CF808185FFEDCFCE010E94250A65
:10156000E9CFDF91CF91089580E090E0892B29F0B9
:101570000E941B0A81110E94000080E090E0892BEC
:1015800049F080E090E0892B29F00E940000811151
:101590000E94000080E090E0892B49F080E090E01C
:1015A000892B29F00E94000081110E94000080E038
:1015B00090E0892B49F080E090E0892B29F00E948F
:1015C000000081110C9400000895AF92BF92CF9259
:1015D000DF92EF92FF920F931F93CF93DF936B01F4
:1015E0007A01EC01CC52DD4F28813CE0389F80012C
:1015F000399F100D1124A090D505B12C27FF1FC0D5
:10160000FB011182108288818F5F88838881980115
:10161000280F311D87FD3A95F6012A153B051CF46C
:1016200088818C30C4F180819181049680349C49FA
:1016300008F473C0F60180819181049670C088819E
:101640009801280F311D87FD3A952A153B05DCF6D8
:101650008881A801480F511D87FD5A95FA01EE0FA8
:10166000FF1FE40FF51FEB5BFA4F808186FFCBCFA6
:101670008881F801E80FF11D87FDFA95CF01EE0F83
:10168000FF1FE80FF91FEB5BFA4F808160E08F735B
:101690000E94DC07B8CF808191812881A801420F88
:1016A000511D27FD5A959A01FA01EE0FFF1FE20F17
:1016B000F31FEB5BFA4F21813281820F931FF701F9
:1016C0009183808388819801280F311D87FD3A9589
:1016D000F901EE0FFF1FE20FF31FEB5BFA4F808162
:1016E00086FF22C08881080F111D87FD1A95F80119
:1016F000EE0FFF1FE00FF11FEB5BFA4F808161E0FF
:101700008F73DF91CF911F910F91FF90EF90DF903A
:10171000CF90BF90AF900C94DC0780E49CE9F70178
:10172000918380838FEF8883DF91CF911F910F91F9
:10173000FF90EF90DF90CF90BF90AF900895DC01C5
:101740001A96ED91FC9130E020E01994DC0114969A
:10175000ED91FC9130E020E040E060E11994DC0183
:101760001696ED91FC9130E020E040E069E119949B
:10177000DC011696ED91FC9130E020E040E068E15C
:1017800019949A01DC011696ED91FC91462F67E1C0
:101790001994EF92FF920F931F93CF93DF931F92B1
:1017A000CDB7DEB77C018B01D8016C91673129F18F
:1017B00050F46531A0F40F90DF91CF911F910F91FC
:1017C000FF90EF9008956A3118F16E3FA1F7F8018C
:1017D0004181498369E2C7010E949F0B0BC0F80158
:1017E00041814983D7011696ED91FC9130E020E0CC
:1017F000C70119950E5F1F4FD7CFF80181818983EB
:10180000AE014F5F5F4F61E0C7010E94C10BF2CF95
:101810000F5F1F4FD7011696ED91FC9130E020E04D
:1018200040E0C7011995C0CF462FDC011696ED9117
:10183000FC9130E020E066E11994462FDC01169619
:10184000ED91FC9130E020E065E11994EF92FF9278
:101850000F931F93CF93DF93EC01042F790169302D
:1018600039F48DE492E09983888380E28C8B3BC0CD
:101870006A3009F040C0EA85FB8530E020E040E0B6
:1018800068E21995EE81FF8130E020E040E064E1FC
:10189000CE01199541E06BE4CE010E949F0BE881D7
:1018A000F981448169E2CE010E949F0B40E06BE424
:1018B000CE010E949F0BE881F981448169E2CE014B
:1018C0000E949F0B41E06BE4CE010E949F0BE881D8
:1018D000F981458169E2CE010E949F0B60E072E0D0
:1018E000CE010E94C90B81E0DF91CF911F910F9132
:1018F000FF90EF9008956D30D1F120F46B3079F1C5
:1019000080E0F2CF6E3009F444C06F30C9F70E9416
:10191000B80BF7011381110F110F110F6C89160FFE
:10192000612F62956F706061CE010E941D0C612F66
:101930006F70CE010E941D0CF7016481606BCE01B7
:101940000E941D0CF701408151816281660F660F74
:10195000660FCE010E94C10B0150A1F724C068E4BC
:1019600072E0442309F4BCCF63E472E0B9CF4111C3
:1019700008C06CE372E00E94C90BE881F98182899A
:1019800075CF65E372E00E94C90BE881F981838914
:101990006DCF0E94B80B61E8CE010E941D0C602F34
:1019A000CE010E94140CCE010E94AF0B9CCFDC0133
:1019B0001896ED91FC9130E020E040E069E1199447
:1019C000DC011896ED91FC9130E020E040E068E108
:1019D0001994CF93DF931F92CDB7DEB76983BE0111
:1019E0006F5F7F4F0E94BE060F90DF91CF910895E9
:1019F000EF92FF921F93CF93DF93EC01162F7A01A2
:101A00000E94E00C60E4CE010E94E90CE885F985B3
:101A10009701412F67E1CE011995CE01DF91CF915A
:101A20001F91FF90EF900C94D70CEF92FF921F93B1
:101A3000CF93DF93EC01142F7901663181F138F4F3
:101A4000643109F44BC0653179F080E022C068311F
:101A5000C9F150F16931C9F78091D302882391F11E
:101A6000CE010E94D70C2EC08091D302882319F09A
:101A7000CE010E94D70CCE010E94E00C60E0CE01A6
:101A80000E94E90C612FCE010E94E90C81E0809355
:101A9000D302DF91CF911F91FF90EF900895642FB3
:101AA0000E94E90C81E0F5CF8091D302882319F0E0
:101AB000CE010E94D70CA701193138F4612FCE0155
:101AC0000E94F80C1092D302EDCF68E1CE010E9483
:101AD000F80C185188E1E80EF11CEDCF8E898F3F8C
:101AE00011F488E78E8BE885F9859701412F64E131
:101AF000CE01DF91CF911F91FF90EF9019940F933A
:101B0000FC01E05CFF4F0190F081E02D4E1B5F0B6C
:101B1000DC01D496ED91FC9119950F910895CF9326
:101B2000DF93FC01A081B18182AD90E09C0143E094
:101B3000220F331F4A95E1F737AF26AF50962C910D
:101B4000509748E0249F9001112435AF24AF23AD76
:101B500030E0B90153E0660F771F5A95E1F7EF01C6
:101B6000C05CDF4F7983688351964C915197E901AE
:101B7000C80FD91F50E04C175D0718F4CA01821B2B
:101B8000930BEF01CE5BDF4F79836883229623E0CE
:101B9000880F991F2A95E1F7860F971F99838883ED
:101BA000229654968D919C91559799838883E85BF2
:101BB000FF4F56968D919C9191838083DF91CF91B9
:101BC00008950F931F93FC01E25BFF4F0190F0819A
:101BD000E02DDC01A05BBF4F0D90BC91A02D4A17FA
:101BE0005B0740F4E017F10748F00417150730F0E1
:101BF00080E019C0E017F107C0F3FACFFC01E65B03
:101C0000FF4F40815181845B9F4FFC018081918116
:101C10006817790758F481E04217530720F081E0F4
:101C20002617370728F71F910F910895421753077A
:101C3000B0F3DECF2F923F924F925F926F927F92DE
:101C40008F929F92AF92BF92CF92DF92EF92FF92CC
:101C50000F931F93CF93DF9300D000D000D01F923B
:101C6000CDB7DEB79A878987865B9F4F9A83898332
:101C7000FC0111821082E985FA85EA5BFF4F408002
:101C8000518029853A85245B3F4F3C832B83F901A2
:101C900051824082E985FA85EE5BFF4F20803180DA
:101CA00029853A85225B3F4F3E832D83F90131829E
:101CB0002082E985FA85EC5BFF4F60807180298581
:101CC0003A85205B3F4F38872F83F901718260820C
:101CD000E985FA85E85AFF4FE080F180E985FA85C9
:101CE000EC5AFF4FA080B180E985FA85EA5AFF4F90
:101CF000C080D180E985FA85EE5AFF4F80809180BF
:101D000087019501A601B40189859A850E94E10D9C
:101D100029853A852C573F4F3A87298781111BC067
:101D2000F90110822A960FB6F894DEBF0FBECDBF20
:101D3000DF91CF911F910F91FF90EF90DF90CF90A7
:101D4000BF90AF909F908F907F906F905F904F90DB
:101D50003F902F90089581E0E985FA858083811472
:101D6000910421F0E981FA8191828082A414B50462
:101D700020F4EB81FC81B182A0822C143D0420F47C
:101D8000ED81FE81D182C082E614F70458F6EF811E
:101D9000F885F182E082C6CF0F93CF93DF93E02FD7
:101DA000DC01AC57BF4FFC91FF2309F460C0211543
:101DB000310509F45CC02230310538F0023009F0F9
:101DC0004AC06F5F7F4F621B730B0E2F0170E0FDE7
:101DD00052C0FC01E25BFF4F0190F081E02D4E17F5
:101DE0005F0708F444C0FC01E05BFF4F0190F08105
:101DF000E02D4E175F07D8F5FC01E45BFF4F019023
:101E0000F081E02DDC01A65BBF4F0D90BC91A02DB1
:101E1000260F371F2617370738F56E177F0718F577
:101E20009F0121503109A217B30708F56A177B07F4
:101E300008F4BD012E173F0708F4F901E61BF70B64
:101E4000EC01AEA9BFA914960D90BC91A02D9F01E5
:101E5000FD0119950CC0033009F0B7CF4F5F5F4FFC
:101E6000421B530BB2CFBD016E177F07E0F2DF912B
:101E7000CF910F910895FC01E65BFF4F0190F08137
:101E8000E02D6E177F0798F3FC01E45BFF4F019094
:101E9000F081E02D6E177F0750F7FC01E05BFF4FEC
:101EA0000190F081E02DDC01A25BBF4F0D90BC9151
:101EB000A02D240F351F24173507A8F44E175F07F0
:101EC00088F49F0121503109A217B30780F64A1701
:101ED0005B0708F4AD012E173F0708F4F901E41B76
:101EE000F50BAECFAD014E175F0708F6EDCF2130F1
:101EF00069F038F0223079F0840F911D47FD9A95F2
:101F00000895860F911D67FD9A950895841B910988
:101F100047FD93950895861B910967FD9395089554
:101F2000213069F038F0223079F0861B910967FD85
:101F300093950895840F911D47FD9A950895860FF6
:101F4000911D67FD9A950895841B910947FD93950E
:101F500008953F924F925F926F927F928F929F92DD
:101F6000AF92BF92CF92DF92EF92FF920F931F93A7
:101F7000CF93DF937C01162F442EEC01C25ADF4F22
:101F80005E806F806C018AE8C80ED11C7884751859
:101F9000312E711608F4372C8C809D800E85202FF1
:101FA000462D652D8A819B810E94770F5C01202F31
:101FB000462D652DC4010E94900FAC01442079F09C
:101FC0008C85F6018083232D30E0B501C7010E9486
:101FD000CC0E171548F017196394512CD7CF8B8569
:101FE0008111F7CF8D85EDCF150D1E836F82DF91A7
:101FF000CF911F910F91FF90EF90DF90CF90BF9006
:10200000AF909F908F907F906F905F904F903F9098
:102010000895DC011A964C911A97ED91FC91119755
:10202000249130E0042E02C0359527950A94E2F7FA
:10203000842F860F883068F031961196FC93EE93CA
:10204000E49198E0941B01C0EE0F9A95EAF72E2BCD
:1020500088501A968C938FEF9FEF01C0880F6A9576
:10206000EAF7809582230895FC01E60FF11D849123
:1020700090E0982F88273196E4918E0F911D089556
:10208000AF92BF92CF92DF92EF92FF920F931F9386
:10209000CF93DF9300D01F921F92CDB7DEB78C0194
:1020A000DC01DA96AC90DA97DB96EC90DB97ED9159
:1020B000FC91B188FE2CD12CC12CD801ED91FC9162
:1020C00011978089D8962D913C911C82FD828B833B
:1020D000B8E08B9FC00111248C9DA0018D9D500DF7
:1020E0009C9D500D1124240F351F3A832983D8015C
:1020F0001496ED91FC919E012F5F3F4F41E06FE000
:10210000C8011995F3948F2D8E198A1528F4BFEF05
:10211000CB1ADB0AFB1488F20F900F900F900F90F0
:102120000F90DF91CF911F910F91FF90EF90DF9073
:10213000CF90BF90AF900895CF92DF92EF92FF9231
:102140000F931F93CF93DF93EC01962F683109F41F
:102150004BC0B901993130F49431C9F0973189F00D
:1021600080E006C0993109F461C09032C9F781E07E
:10217000DF91CF911F910F91FF90EF90DF90CF9063
:10218000089550E08CE993E00E941907F0CF8C8508
:102190009D85AE85BF85892B8A2B8B2B71F4E881B9
:1021A000F981A585B0E020EA36E841E050E00E94E0
:1021B000431D6C877D878E879F8710922503109221
:1021C000240310922703109226030E941C098DEE0F
:1021D00096E090934F0380934E038EEE96E090939B
:1021E000530380935203C3CF2C853D854E855F8575
:1021F00060E074E284EF90E00E94561D20513109A6
:102200004109510956954795379527952093B80070
:102210008E8990E09595879591E090930303809344
:10222000D2021092270310922603A1CFD091260349
:10223000D13208F093C0C091D2020E948C096B0188
:102240007C0180917603811164C082E080937603E3
:1022500081E0809378038FEF8093750310929A0347
:10226000D0939903A3EEB2E0E9E7F3E080E0D8135E
:102270007CC010929B0380919B03CC0FC82BC09312
:102280009B0380917703813009F073C0109277032C
:102290000E948C096B017C0180919B038093BB00A1
:1022A0008091290390912A03A0912B03B0912C03D4
:1022B000892B8A2B8B2B99F00E948C090091290382
:1022C00010912A0320912B0330912C036C197D0966
:1022D0008E099F090617170728073907D8F180913B
:1022E000BC0083FDD9CF85EC8093BC000E948C0993
:1022F0006B017C01809176038230E9F18091750356
:102300008F3F61F180917503803241F180917503B7
:1023100025C08091290390912A03A0912B03B091AD
:102320002C03892B8A2B8B2B09F48BCF0E948C09D1
:102330000091290310912A0320912B0330912C0343
:102340006C197D098E099F09061717072807390799
:1023500008F077CF809128030E943A091092270352
:10236000109226031092030302CF9D9191938F5FE9
:102370007ECF85EEB9CF8091290390912A03A09159
:102380002B03B0912C03892B8A2B8B2B09F4B2CF12
:102390000E948C090091290310912A0320912B039C
:1023A00030912C036C197D098E099F0906171707B8
:1023B0002807390708F09ECFCDCF8F929F92AF921A
:1023C000BF92CF92DF92EF92FF921F93CF93DF9352
:1023D000EC016C32B0F46A32E8F5683241F16932EE
:1023E00009F445C080E06034B0F16F73FE01E60F80
:1023F000F11D868D8F3F71F1603108F06EC0642F42
:1024000013C06D3209F457C068F384EB860F823035
:1024100048F76F73C60FD11D8E8D41115AC061E010
:102420000E945B0960E08E8D0E94DC0713C07C0176
:102430002EE1E20EF11CD0E0F70181917F018F3F88
:1024400031F061E0D03108F062E00E945B09DF5FAB
:10245000D63191F781E0DF91CF911F91FF90EF90FE
:10246000DF90CF90BF90AF909F908F900895C42E33
:10247000D12CF12CE12C0E948C094B015C01C11480
:10248000D104E104F10431F30E948C09681979093F
:102490008A099B09683E73408105910580F3F1E04C
:1024A000CF1AD108E108F10828EE820E23E0921E2F
:1024B000A11CB11CE4CF85E090E0433010F082E035
:1024C00090E0880F991F880F991F05970197F1F7E2
:1024D000C1CF62E00E945B09BDCF282F30E0F90137
:1024E000EE55FD4F8491F901E45AFD4FF490F90146
:1024F000EA5EFD4F1491112379F081110E94750756
:10250000E12FF0E0EE0FFF1FE853FE4FA591B491CD
:10251000EC91FE2281E009F480E0898F9BCFCF927D
:10252000DF92EF92FF920F931F93CF93DF936C0193
:10253000EB017B01E40EF51E10E000E0CE15DF0597
:1025400061F06991D601ED91FC910190F081E02D4F
:10255000C6011995080F191FF1CFC801DF91CF915E
:102560001F910F91FF90EF90DF90CF9008952F92E1
:102570003F924F925F926F927F928F929F92AF9213
:10258000BF92CF92DF92EF92FF920F931F93CF9360
:10259000DF9300D000D01F921F92CDB7DEB77C0131
:1025A0006C0124E0C20ED11CFC01E057FF4F0190EA
:1025B000F081E02DC60119958C018E3F9F4F08F0E8
:1025C00061C0370184E9680E711CF3010190F0814C
:1025D000E02DFD83EC835701F2E9AF0EB11CF5014C
:1025E00080809180970120593F4F3B832A83F901D6
:1025F0008081813009F470C008F45FC0823009F432
:1026000076C0833009F482C0F701EC59FF4F918204
:10261000808232962C813D8131832083389780815E
:10262000918147969D838C830F3F110511F008F02F
:1026300020C1B6960136110530F40134110558F069
:10264000F701EE57FF4F808191812C813D81280F4A
:10265000391F3D832C838C819D810196FC0124913F
:1026600021115FC090E080E0EA81FB812081213070
:1026700009F4C1C108F4B7C1223009F4BEC1233046
:1026800009F4C3C181E090E028960FB6F894DEBF4C
:102690000FBECDBFDF91CF911F910F91FF90EF90B3
:1026A000DF90CF90BF90AF909F908F907F906F9072
:1026B0005F904F903F902F900895F701E05AFF4FA1
:1026C0000190F081E02DC60119952C813D81280FE4
:1026D000391F3D832C8398CFF701E05AFF4F0190BB
:1026E000F081E02DC6011995881A990A8DCFF7015E
:1026F000E05AFF4F0190F081E02DC6011995EC8161
:10270000FD81E81BF90BFD83EC837ECFF701E05AD6
:10271000FF4F0190F081E02DC6011995880E991E9A
:1027200073CFEC81FD8124912017110609F09AC026
:10273000CF010296009709F495CFF701EE59FF4FAC
:10274000F887EF83918380831286739660818F81EF
:1027500098850E940910EF81F8858087F701EA5873
:10276000FF4F60818F8198850E940910582EEF815C
:10277000F8858187970122573F4F3D832C83F901CC
:102780009081EF81F885948781E0911180E0EF815D
:10279000F8858587F701E958FF4F8080682D8F8184
:1027A00098850E940910382EF701E858FF4F2080C5
:1027B000622D8F8198850E940910982EF701E758A5
:1027C000FF4F1081612F8F8198850E9409109FEF24
:1027D000910F01E010E0980101C0220F9A95EAF7ED
:1027E000821B8E83EF81F885408414140CF0C4C0E2
:1027F0008A94C80101C0880F8A94EAF7381AF685CE
:10280000F983950C2A94C80101C0880F2A94EAF72D
:10281000282E29182F2F422D632DEF81F8858281D4
:1028200093810E94770F4C01EF81F8859383828317
:102830002981422D632D848195810E94900FEF8123
:10284000F88595838483F981F13009F49AC008F4FE
:102850004EC0F23009F4A4C0F33009F4B5C0BC0195
:1028600094014FC0FC0184912C813D81280F311DC2
:10287000F0CEF701EA57FF4F80819181EC81FD8115
:10288000E80FF91FFD83EC834F0160E0C4010E9453
:1028900034102C813D81280F391F3D832C8362E049
:1028A000C4010E94341034E0830E911C80179107FC
:1028B00060F3EC81FD81849190E0982F8827319618
:1028C000E4918E2B009709F4CDCE0817190721F457
:1028D0008C819D8103962ECFEC81FD813296E4910F
:1028E0002C813D812E0F311D3D832C83E2CF94013D
:1028F000240D311D47FC3A95BC01650D711D57FC37
:102900007A958B01AC01B401C6010E94E10D8823C8
:1029100099F1EF81F885168217824701F3E78F0E50
:10292000911C24E7E20EF11CF40160818F819885EF
:102930000E940910082FF70160818F8198850E94FD
:102940000910182F40E0602FC6010E94A90F41E036
:10295000612FC6010E94A90F61E08F8198850E94B6
:1029600009108111EFCFEF81F88587818515E4F299
:102970008485EC81FD818083FE818F2FFF0F990B71
:1029800073CE0519110957FC139594012F5F3F4F22
:10299000BC01640D711D47FC7A95800E911EB1CF6C
:1029A000A8014419510947FC539594012F5F3F4FEB
:1029B0000519110957FC1395BC016F5F7F4F800FFC
:1029C000911F840E951E9DCF9401250D311D57FC3E
:1029D0003A950419110947FC1395BC016F5F7F4FAD
:1029E000800F911F8ECFF50120813181820F931FBF
:1029F0009183808347CEF301F7CFF50120813181A8
:102A0000281B390B318320833DCEF301F7CF089586
:102A100090E080E0089585ED8093BC0080912903CB
:102A200090912A03A0912B03B0912C030796A11D2E
:102A3000B11D23E0B695A795979587952A95D1F76F
:102A40002091BC0024FD03C01092760308954091AC
:102A5000290350912A0360912B0370912C03452B7D
:102A6000462B472B69F30097A105B10541F025E3FB
:102A70002A95F1F700000197A109B109E1CF8091F2
:102A800028030C943A09FC01A081B18150962C9145
:102A900082AD38E0839FC0011124289FA001299FA7
:102AA000500D112470E060E080AD91AD0C94CA1D12
:102AB0001F920F920FB60F9211240BB60F922F9305
:102AC0003F934F935F936F937F938F939F93AF93B6
:102AD000BF93EF93FF938091B900887F803609F40C
:102AE0004DC008F040C0883209F4A9C028F58031F3
:102AF00009F49DC0C8F4882309F4FBC0883009F4A8
:102B000096C0FF91EF91BF91AF919F918F917F916F
:102B10006F915F914F913F912F910F900BBE0F904E
:102B20000FBE0F901F901895883109F488C080322D
:102B300041F78093750314C0803409F49DC040F4BC
:102B40008033B9F38833E9F68093750385ECB0C020
:102B5000803509F485C0883509F496C0883489F633
:102B60000E940B15CECF883909F48CC038F5883710
:102B700029F050F4883611F0803719F683E08093FD
:102B800076031092740357C0883809F47BC08039EB
:102B900019F0803809F0B5CF80917403803208F0C5
:102BA00071C0E091740381E08E0F80937403809173
:102BB000BB00F0E0EC5AFC4F80833DC0803B39F015
:102BC000E0F4803A09F479C0883A09F09ACF84E0B9
:102BD000809376031092510310925003E0914E03BC
:102BE000F0914F0319958091500381110FC081E03E
:102BF0008093500310922E0309C0803C09F4A6CFA5
:102C0000883C09F4A3CF883B09F07BCFE0915103C6
:102C100081E08E0F80935103F0E0E25DFC4F8081F4
:102C20008093BB00909151038091500329C0809103
:102C30009B038093BB0085EC8093BC0062CF909196
:102C40009A0380919903981758F5E0919A0381E0CF
:102C50008E0F80939A03F0E0E758FC4F8081E9CF14
:102C6000E0919A0381E08E0F80939A038091BB00DC
:102C7000F0E0E758FC4F808390919A03809199038C
:102C80009817C8F285E8D8CFE0919A0381E08E0FBB
:102C900080939A038091BB00F0E0E758FC4F80835B
:102CA0008091780381115CCF81E08093770384EA7F
:102CB0008093BC001092760324CF85EC8093BC00F7
:102CC0001092760380917403803230F4E0917403A3
:102CD000F0E0EC5AFC4F10826091740370E0E091D8
:102CE0005203F091530384E593E019951092740315
:102CF00008CF1092750334CF1F920F920FB60F9228
:102D000011242F933F938F939F93AF93BF93809101
:102D1000DB029091DC02A091DD02B091DE023091E5
:102D2000DA0223E0230F2D3758F50196A11DB11DBE
:102D30002093DA028093DB029093DC02A093DD0201
:102D4000B093DE028091DF029091E002A091E10257
:102D5000B091E2020196A11DB11D8093DF02909314
:102D6000E002A093E102B093E202BF91AF919F9184
:102D70008F913F912F910F900FBE0F901F9018953C
:102D800026E8230F0296A11DB11DD2CF1F920F92EC
:102D90000FB60F9211240BB60F922F933F934F93C0
:102DA0005F936F937F938F939F93AF93BF93EF93B3
:102DB000FF9388EA93E00E94250AFF91EF91BF916B
:102DC000AF919F918F917F916F915F914F913F91C3
:102DD0002F910F900BBE0F900FBE0F901F90189564
:102DE0001F920F920FB60F9211240BB60F922F93D2
:102DF0008F939F93EF93FF93E091B803F091B90302
:102E00008081E091BE03F091BF0382FD1DC09081DF
:102E10008091C1038F5F8F732091C203821741F0AD
:102E2000E091C103F0E0E855FC4F958F8093C1031A
:102E3000FF91EF919F918F912F910F900BBE0F906B
:102E40000FBE0F901F9018958081F2CF1F920F92A6
:102E50000FB60F9211240BB60F922F933F934F93FF
:102E60005F936F937F938F939F93AF93BF93EF93F2
:102E7000FF9348E251E064E271E090E080E00E945C
:102E8000E50AFF91EF91BF91AF919F918F917F9153
:102E90006F915F914F913F912F910F900BBE0F90CB
:102EA0000FBE0F901F9018951F920F920FB60F92A2
:102EB00011240BB60F922F933F934F935F936F9311
:102EC0007F938F939F93AF93BF93EF93FF9348EAC2
:102ED00050E064EA70E083E090E00E94E50AFF9130
:102EE000EF91BF91AF919F918F917F916F915F9182
:102EF0004F913F912F910F900BBE0F900FBE0F90EF
:102F00001F9018951F920F920FB60F9211240BB6B7
:102F10000F922F933F934F935F936F937F938F9372
:102F20009F93AF93BF93EF93FF9348E950E064E919
:102F300070E082E090E00E94E50AFF91EF91BF917E
:102F4000AF919F918F917F916F915F914F913F9141
:102F50002F910F900BBE0F900FBE0F901F901895E2
:102F60001F920F920FB60F9211240BB60F922F9350
:102F70003F934F935F936F937F938F939F93AF9301
:102F8000BF93EF93FF9348E850E064E870E081E07E
:102F900090E00E94E50AFF91EF91BF91AF919F9160
:102FA0008F917F916F915F914F913F912F910F90F2
:102FB0000BBE0F900FBE0F901F901895CF931092DD
:102FC0009F0310929E0388EE93E0A0E0B0E0809310
:102FD000A0039093A103A093A203B093A30329E6B7
:102FE00032E030939D0320939C031092AB03109228
:102FF000AA038093AC039093AD03A093AE03B09368
:10300000AF038BE792E09093A9038093A80385EC2C
:1030100090E09093B5038093B40384EC90E0909398
:10302000B7038093B60380EC90E09093B90380934C
:10303000B80381EC90E09093BB038093BA0382ECD9
:1030400090E09093BD038093BC0386EC90E0909356
:10305000BF038093BE031092C1031092C20310926B
:10306000C3031092C4038091D505803308F009C1D1
:1030700091E0980F9093D5058093860690E0FC012F
:10308000EE0FFF1FE80FF91FEB5BFA4F88EB9BE099
:10309000928381831092F3051092F2058BE296E001
:1030A0009093810680938006109283061092820688
:1030B000109285061092840610920C068DE892E01C
:1030C0009093F1058093F0051092F5051092F405A8
:1030D0001092090610920006109201061092020644
:1030E000109203068FEF80930A0680930E06E2E1AA
:1030F000F6E088E296E0CFEFC1938E179F07E1F7E5
:1031000086E29CE09093F9058093F80585E19DE0C7
:103110009093FB058093FA058CE990E19093FD056F
:103120008093FC058DED91E19093FF058093FE0562
:1031300030E020E040E069E084EF95E00E94260C5A
:1031400010924F0610924E0685E396E09093290662
:103150008093280685E494E090932D0680932C06B6
:1031600084E080932E0610922F0610925D06109236
:103170007D061092790681E080937E0680937F061B
:1031800085E992E090932B0680932A0684EF95E0E0
:103190000E948F0D109247061092460610924B0621
:1031A00010924A068FEF9FEF90934906809348064E
:1031B00090934D0680934C06E0912A06F0912B06E1
:1031C0000280F381E02D84EF95E0199584EA96E082
:1031D000909351068093500610926006C0931D068E
:1031E000C0931E06C0931F061092E1051092E005E1
:1031F0001092D7051092D6051092EC051092ED05AD
:103200001092EE051092EF0580E290E09093DD05BC
:103210008093DC0588E090E09093E3058093E205DD
:103220008AE090E09093E5058093E40589E090E0E2
:103230009093E7058093E6058BE090E09093E90595
:103240008093E80561E088E00E945B0961E080917D
:10325000E4050E945B0961E08091E6050E945B093C
:1032600061E08091E8050E945B091092EB051092E5
:10327000EA0584E090E09093DF058093DE05CF912E
:1032800008958FEF8093860605CFCF93DF93CDB758
:10329000DEB7AC970FB6F894DEBF0FBECDBF789403
:1032A00084B5826084BD84B5816084BD85B582604B
:1032B00085BD85B5816085BD80916E0081608093FC
:1032C0006E00109281008091810082608093810065
:1032D0008091810081608093810080918000816075
:1032E000809380008091B10084608093B1008091D0
:1032F000B00081608093B0008091910082608093E3
:103300009100809191008160809391008091900064
:103310008160809390008091A10082608093A100E1
:103320008091A10081608093A1008091A0008160C4
:103330008093A0008091210182608093210180917F
:10334000210181608093210180912001816080931F
:10335000200180917A00846080937A0080917A00C5
:10336000826080937A0080917A00816080937A00F5
:1033700080917A00806880937A001092C100E09179
:10338000B803F091B90382E08083E091B403F09137
:10339000B5031082E091B603F091B7038FEC808300
:1033A0001092C003E091BC03F091BD0386E08083DE
:1033B000E091BA03F091BB03808180618083E0914A
:1033C000BA03F091BB03808188608083E091BA03E7
:1033D000F091BB03808180688083E091BA03F09113
:1033E000BB0380818F7D808380918606803308F0C7
:1033F00054C061E083E00E945B0980918606282F1B
:1034000030E0F901EE0FFF1FE20FF31FEB5BFA4F05
:103410009081907C936090839EE89093870694E6D9
:10342000909388062CE0622F0E94871D829FB00136
:10343000112430E020E0AB01420F531FFA01EE0FE0
:10344000FF1FE40FF51FEB5BFA4F908196FD17C04D
:103450002F5F3F4F2C30310571F7813009F01FC1CC
:103460001092800082E0809381001092850010927B
:103470008400B19A80916F00826080936F00E09128
:1034800086068E2F90E0FC01EE0FFF1FE80FF91F5C
:10349000EB5BFA4F808180648083E091F805F091C6
:1034A000F90530E020E040E06AE084EF95E019950E
:1034B00080917F06882321F084EF95E00E944315D8
:1034C00080E00E94A70684EF95E00E9440101091D2
:1034D0002F0680912E06180FE091F405F091F50566
:1034E0008189181708F407C184EF95E00E94A60BA4
:1034F00080E00E94A706E091F805F091F90530E020
:1035000020E040E06BE084EF95E0199580914E0655
:1035100090914F06885E924009F0F7C0ACE28A2E87
:1035200099249394A12CB12CBAE02B2E312C14EBBE
:10353000412E512C612C712C8E010B5E1F4FAE0160
:103540004F5F5F4F5AA749A780917B00877F809389
:103550007B0081E480937C0080917A00806480937A
:103560007A0080917A0086FDFCCF80917800A0914E
:103570007900BA2FA82F24EB30E00E94AF1D2FEF67
:1035800033E040E050E00E94241D3093D9022093A4
:10359000D8022091DC053091DD05032E000C440B90
:1035A000550B60E077E883E993E00E94241DCA018F
:1035B000B901A50194010E94241D2093D8053093E0
:1035C000D9054093DA055093DB051092D705109288
:1035D000D60580E197E29CA78BA72BA53CA5232BC2
:1035E00009F45AC10E948C09C090EC05D090ED05F9
:1035F000E090EE05F090EF059B01AC012C193D0920
:103600004E095F0969017A012091D8053091D905E9
:103610004091DA055091DB05C216D306E406F506A3
:10362000E0F26093EC057093ED058093EE059093C6
:10363000EF058091E0059091E1052091D60530914C
:10364000D7052130310509F013C101969093E105AA
:103650008093E0052091DC053091DD05821793070A
:1036600021F41092E1051092E0054BA55CA54150B4
:1036700051095CA74BA78091E0059091E10520914D
:10368000DE053091DF056AE070E02530310511F08C
:1036900064E070E00E94931D0E940A089ECF823071
:1036A00061F4109290008093910010929500109216
:1036B000940088BB80937100E2CE833069F410924D
:1036C000A00082E08093A1001092A5001092A400B7
:1036D00089BB80937200D3CE8111D1CE109220018C
:1036E00082E08093210110922501109224018ABB6F
:1036F00080937300C4CE80917F06882321F084EFED
:1037000095E00E944315812FDCCEE8EEF2E0F093C5
:103710004F06E0934E06E491E0936106E9EEF2E095
:10372000E491E0936206EAEEF2E0E491E09363064E
:10373000EBEEF2E0E491E0936406ECEEF2E0E4916B
:10374000E0936506EDEEF2E0E491E0936606EEEEBE
:10375000F2E0E491E0936706EFEEF2E0E491E093AB
:103760006806E0EFF2E0E491E0936906E1EFF2E051
:10377000E491E0936A06E2EFF2E0E491E0936B06F5
:10378000E3EFF2E0E491E0936C06E4EFF2E0E49121
:10379000E0936D06E5EFF2E0E491E0936E06E6EF6C
:1037A000F2E0E491E0936F06E7EFF2E0E491E0935A
:1037B0007006E8EFF2E0E491E093710661E188EED3
:1037C00092E00E943410909373068093720663E136
:1037D00088EE92E00E9434109093750680937406F0
:1037E00065E188EE92E00E94341090937706809312
:1037F000760680914E0690914F06892B09F48ECE65
:1038000080916E0680937A0640916F0640937B0606
:1038100090917906992309F481CE913071F49091B9
:103820007006891714F490937A06809171068417B4
:103830000CF074CE80937B0671CE30916B06209194
:103840006D06082E000C990B622F022E000C770BD0
:10385000630F711D37FD7A95861797071CF4320F99
:1038600030937A0624170CF059CE20937B0656CE5F
:10387000892B41F48091DC059091DD059093E10561
:103880008093E0058091E0059091E1050197909388
:10389000E1058093E005E9CEA091D802B091D9026C
:1038A000A03252E0B507C4F58091870628E830E0E1
:1038B000281B310987FD3395220F331F220F331F39
:1038C0006901330FEE08FF088091880628E532E091
:1038D000281B310987FD3395220F331F220F331F19
:1038E000032E000C440B550B2C193D094E095F09A2
:1038F000A53BB10514F0A4EBB0E0B7FF02C0B0E007
:10390000A0E00E944E1DA30192010E94241D2C0DD7
:103910003D1D4E1D5F1DD90120918606203388F57F
:103920008091870648E850E0481B510987FD539570
:10393000CA01880F991F880F991FA817B9078CF023
:103940008091880648E552E0481B510987FD539550
:10395000CA01880F991F880F991FA817B9070CF47F
:10396000CD010297880F991F4FB7F89430E0F90105
:10397000EE0FFF1FE20FF31FEB5BFA4F9283818381
:103980004FBFD090D802C090D90284EF95E00E943A
:1039900043151F921F928BE992E09F938F931F9381
:1039A0000F930E94D11D309283062092820684E1FB
:1039B00090E09093850680938406F80101900020A2
:1039C000E9F73197AF01401B510BB80180EF95E04B
:1039D0000E948F1230928306209282068EE190E040
:1039E0009093850680938406CF92DF9284EA92E0DA
:1039F0009F938F9381E090E08C0F9D1F9F938F93F7
:103A00000E94D11DE9A5FAA501900020E9F73197A0
:103A1000AF0129A53AA5421B530BBE016F5F7F4F33
:103A200080EF95E00E948F1284EF95E00E94401095
:103A300084EF95E00E94A60B0E94B40A0FB6F8949A
:103A4000DEBF0FBECDBF80CD052E97FB1EF40094C8
:103A50000E943B1D57FD07D00E94561D07FC03D056
:103A60004EF40C943B1D50954095309521953F4F59
:103A70004F4F5F4F089590958095709561957F4F5A
:103A80008F4F9F4F08950E94781DA59F900DB49F62
:103A9000900DA49F800D911D11240895B7FF0C94E3
:103AA000431D0E94431D821B930B0895A1E21A2E11
:103AB000AA1BBB1BFD010DC0AA1FBB1FEE1FFF1FD2
:103AC000A217B307E407F50720F0A21BB30BE40B22
:103AD000F50B661F771F881F991F1A9469F7609569
:103AE0007095809590959B01AC01BD01CF01089523
:103AF000A29FB001B39FC001A39F700D811D11242F
:103B0000911DB29F700D811D1124911D0895991B67
:103B100079E004C0991F961708F0961B881F7A95C4
:103B2000C9F78095089597FB072E16F4009407D0E7
:103B300077FD09D00E94B61D07FC05D03EF4909594
:103B400081959F4F0895709561957F4F0895EE0F71
:103B5000FF1F881F8BBF0790F691E02D19940E94DC
:103B6000781DB7FF0895821B930B0895AA1BBB1BFA
:103B700051E107C0AA1FBB1FA617B70710F0A61B6D
:103B8000B70B881F991F5A95A9F780959095BC018E
:103B9000CD010895DC0101C06D9341505040E0F724
:103BA00008950F931F93CF93DF93CDB7DEB72E9772
:103BB0000FB6F894DEBF0FBECDBF0E891F8986E019
:103BC0008C831A8309838FEF9FE79E838D83AE01D9
:103BD000465E5F4F688D798DCE0101960E94011E71
:103BE0002F813885020F131FF80110822E960FB611
:103BF000F894DEBF0FBECDBFDF91CF911F910F9123
:103C000008952F923F924F925F926F927F928F9280
:103C10009F92AF92BF92CF92DF92EF92FF920F935B
:103C20001F93CF93DF9300D000D000D01F921F923C
:103C3000CDB7DEB77C013B018A01FC0117821682F9
:103C4000838181FFDDC1CE0101965C01F701938183
:103C5000F30193FD859193FF81913F01882309F43E
:103C600053C1853239F493FD859193FF81913F01D2
:103C7000853229F4B70190E00E941920E7CF912CFA
:103C8000212C312CFFE1F31538F08B3211F190F437
:103C9000803209F1833229F137FC3CC020ED280F36
:103CA0002A3050F536FE20C08AE0989E200D11245F
:103CB000922E06C08D3291F0803371F7689430F8FF
:103CC000F30193FD859193FF81913F018111DACF3B
:103CD00021C0689431F8689432F8F2CF689433F8D0
:103CE000EFCF689434F8ECCFEAE02E9E200D11243B
:103CF000222E689435F8E4CF8E3229F436FC04C1C4
:103D0000689436F8DDCF8C3619F4689437F8D8CF3C
:103D10008836B1F2982F9F7D95549330E0F083362A
:103D2000A1F18337C1F1833509F063C02801F2E0C6
:103D30004F0E511CF801C080D180692D70E036FC17
:103D400002C06FEF7FEFC6010E9403204C01689410
:103D500037F882010AC00C5F1F4FFFE3F983882404
:103D60008394912C6501E89437F833FE2DC0522CD2
:103D70008114910471F5552009F468CFB70180E2F0
:103D800090E00E9419205A94F6CFF801808189832F
:103D90000E5F1F4FE4CF2801F2E04F0E511CF801D7
:103DA000C080D180692D70E036FC02C06FEF7FEFDC
:103DB000C6010E940E204C018201D5CFB70180E2DE
:103DC00090E00E9419202A942814190409F0B0F7F1
:103DD000CECFF60137FC859137FE81916F01B70197
:103DE00090E00E94192051105A94F1E08F1A910826
:103DF000BFCF843619F0893609F077C0F80137FE55
:103E00006BC060817181828193810C5F1F4FF32DA4
:103E1000FF763F2E97FF09C090958095709561952C
:103E20007F4F8F4F9F4F689437F82AE030E0A5010D
:103E30000E944920C82ECA188C2C432C36FE0CC078
:103E4000E89440F8C91440F434FE05C032FC03C0C5
:103E5000F32DFE7E4F2E892C44FEAAC0FE01EC0DF0
:103E6000F11D8081803309F09CC0242D297E422ED3
:103E7000842D8870582E43FCAAC040FEA4C09C2C00
:103E8000821418F42C0C922C981844FEA6C0B7018A
:103E900080E390E00E94192042FE09C088E790E08C
:103EA00041FE02C088E590E0B7010E941920C914C4
:103EB00008F49FC0CA94D12C9FEFC91AD90ACA0C22
:103EC000DB1CF60182916F01B70190E00E9419207E
:103ED000AC14BD04B1F74FCF60817181072E000C87
:103EE000880B990B0E5F1F4F92CFD32CE894D4F818
:103EF0002AE030E08537E1F1232D297FD22E8F365D
:103F0000A9F1F0F4883551F1F701868197812B965C
:103F10000FB6F894DEBF0FBECDBFDF91CF911F91DA
:103F20000F91FF90EF90DF90CF90BF90AF909F9058
:103F30008F907F906F905F904F903F902F9008955B
:103F4000803749F0883701F7D4FE02C06894D2F870
:103F500020E130E00DC06894D4F8F6CF34FE03C001
:103F6000822F8660D82E20E132E002C028E030E0C7
:103F7000F801D7FE0FC060817181828193810C5F4F
:103F80001F4FA5010E944920C82ECA183D2CE89455
:103F900037F852CF6081718190E080E00E5F1F4F53
:103FA000F0CF42FC02C0839463CF8394839460CFAC
:103FB000842D867809F45CCFF6CFB70180E290E0DB
:103FC0000E94192083948214C0F3512C5ECF522C8E
:103FD0005818821408F459CFF8CF842D867809F444
:103FE00066CF8BE241FE80E247FC8DE2B70190E0B4
:103FF0005CCFB70180E390E00E9419209A9457CFDC
:104000008FEF9FEF84CFFC0105906150704001104D
:10401000D8F7809590958E0F9F1F0895FC016150F1
:10402000704001900110D8F7809590958E0F9F1FDA
:1040300008950F931F93CF93DF93182F092FEB0150
:104040008B8181FD09C01FEF0FEF812F902FDF9132
:10405000CF911F910F91089582FF14C02E813F814F
:104060008C819D81281739073CF4E881F981CF01C3
:1040700001969983888310838E819F8101969F8307
:104080008E83E3CFE885F985812F1995892BA1F3DC
:10409000DACFFA01AA27283051F1203181F1E894D2
:1040A0006F936E7F6E5F7F4F8F4F9F4FAF4FB1E02B
:1040B0003ED0B4E03CD0670F781F891F9A1FA11D26
:1040C000680F791F8A1F911DA11D6A0F711D811D27
:1040D000911DA11D20D009F468943F912AE0269FEC
:1040E00011243019305D3193DEF6CF010895462F4B
:1040F0004770405D4193B3E00FD0C9F7F6CF462F2C
:104100004F70405D4A3318F0495D31FD4052419394
:1041100002D0A9F7EACFB4E0A69597958795779551
:104120006795BA95C9F700976105710508959B01D8
:10413000AC010A2E06945795479537952795BA9561
:10414000C9F7620F731F841F951FA01D0895F8946F
:02415000FFCF9F
:104152001815AE15D5168015A8161F15D3160015FD
:1041620040158D16141520160015A115C815DA165E
:1041720012158116CF15D9162215DB1600152E152C
:10418200A415A619FF1815A015C019FF1815A11519
:10419200C819FF1815AE19FF1815AF19FF00011441
:1041A2000A6464323200127A00000428960804205D
:1041B200204000200000000000460719070815EF04
:1041C200061207FF06F00600000000470AB109DEEA
:1041D20009940A0F0AED09010A00000000B7128FC4
:1041E20012081507158F0D1A0E7F0D535450203AE1
:0E41F20020256400504F54203A202564000020
:00000001FF
